:020000040800F2
:10000000980D0020C1010008D52400080D22000829
:10001000D12400082F050008BD31000800000000B1
:10002000000000000000000000000000632800083D
:100030008505000800000000D92400086528000894
:10004000DB010008DB010008DB010008DB01000820
:10005000DB010008DB01000887050008DB01000860
:1000600091050008DB010008DB010008DB01000846
:10007000DB010008DB010008350500084505000824
:10008000DB010008DB010008DB010008DB010008E0
:10009000DB010008DB010008DB010008DB010008D0
:1000A00000000000DB010008DB010008DB010008A4
:1000B000E5280008F5280008DB010008DB0100083E
:1000C000DB010008DB010008DB010008DB010008A0
:1000D000DB01000835310008DB010008DB01000806
:1000E000DB010008DB010008DB010008DB01000880
:1000F000DB01000800000000DB010008DB01000854
:100100000000000000000000DB010008DB01000827
:10011000DB010008DB010008DB0100080000000033
:10012000DB01000800F002F800F03AF80AA090E8BD
:10013000000C82448344AAF10107DA4501D100F0A2
:100140002FF8AFF2090EBAE80F0013F0010F18BF35
:10015000FB1A43F001031847644500008445000082
:10016000103A24BF78C878C1FAD8520724BF30C8E3
:1001700030C144BF04680C607047000000230024B5
:1001800000250026103A28BF78C1FBD8520728BFA7
:1001900030C148BF0B6070471FB51FBD10B510BD03
:1001A00000F08CF91146FFF7F7FF03F0AFFB00F00A
:1001B000AAF903B4FFF7F2FF03BC00F0B1F90000A5
:1001C0000948804709480047FEE7FEE7FEE7FEE7EB
:1001D000FEE7FEE7FEE7FEE7FEE7FEE70448054927
:1001E000054A064B70470000E12800082501000879
:1001F00098070020980D00209809002098090020F9
:1002000053EA020C00F069802DE9F04B4FF0000634
:10021000002B1FBFB3FA83F503FA05F424FA05F6A1
:100220005E4012BF1643B2FA82F502FA05F4C5F138
:1002300020051EBF22FA05FC44EA0C04203556EACC
:10024000044C4FEA144418BF641C4FF000084FF0F0
:100250000009904271EB030C39D3002919BFB1FAA0
:1002600081F701FA07F6B0FA80F700FA07F6C7F14E
:1002700020071EBF20FA07FC46EA0C062037B6FB13
:10028000F4FCA7EB0507103F07F01F0BCBF120068E
:100290000CFA0BFB2CFA06F644BFB3460026202FBF
:1002A000A4BF5E464FF0000B5BEA060C08BF4FF0A0
:1002B000010B19EB0B09ABFB027C48EB0608C01BDA
:1002C00006FB02CC0BFB03CC71EB0C01C1E70B4628
:1002D000024641464846BDE8F08B13B54FF000009A
:1002E0004FF00001AFF30080BDE81C40704740EACA
:1002F0000103024630B59B0710D14FF0013400E0F6
:1003000008C208C91D1B9D4315EAC41FF8D013F08D
:10031000FF0102F8011B0DD01B0AF8E711F8013BA1
:10032000002B02F8013B05D011F8013B002B02F82D
:10033000013BF3D130BD032A40F2308010F0030CB2
:1003400000F0158011F8013BBCF1020F624498BF28
:1003500011F801CB00F8013B38BF11F8013BA2F1C5
:10036000040298BF00F801CB38BF00F8013B11F040
:10037000030300F07180083AC0F0088051F8043B94
:10038000083A51F804CBA0E80810F5E7121D5CBF4D
:1003900051F8043B40F8043BAFF30080D20724BF80
:1003A00011F8013B11F801CB48BF11F8012B24BF14
:1003B00000F8013B00F801CB48BF00F8012B704763
:1003C0004FF000020429C0F0128010F0030C00F07E
:1003D0001B80CCF1040CBCF1020F18BF00F8012BFC
:1003E000A8BF20F8022BA1EB0C0100F00DB85FEACA
:1003F000C17C24BF00F8012B00F8012B48BF00F896
:10040000012B70474FF0000200B513469446964604
:10041000203922BFA0E80C50A0E80C50B1F1200117
:10042000BFF4F7AF090728BFA0E80C5048BF0CC0C5
:100430005DF804EB890028BF40F8042B08BF704723
:1004400048BF20F8022B11F0804F18BF00F8012B95
:10045000704770477047704710B5203AC0F00B8066
:10046000B1E81850203AA0E81850B1E81850A0E8B8
:100470001850BFF4F5AF5FEA027C24BFB1E8185012
:10048000A0E8185044BF18C918C0BDE810405FEA82
:10049000827C24BF51F8043B40F8043B08BF7047FE
:1004A000D20728BF31F8023B48BF11F8012B28BF03
:1004B00020F8023B48BF00F8012B7047754600F05A
:1004C0002BF8AE4605006946534620F007008546E6
:1004D00018B020B5FFF782FEBDE820404FF00006BF
:1004E0004FF000074FF000084FF0000B21F007011C
:1004F000AC46ACE8C009ACE8C009ACE8C009ACE85F
:10050000C0098D46704710B50446AFF30080204601
:10051000BDE81040FFF74DBE00487047340700208B
:1005200001491820ABBEFEE726000200704700BF5D
:10053000FEE7000010B5024800F08DF810BD000085
:100540002402002010B5024800F085F810BD00001C
:10055000E001002030B590F8404004F01C05012473
:10056000AC40C56B6C60046863604468102C04D1B7
:100570000468A2600468E16003E00468A1600468A4
:10058000E26030BD704710B5012000F08DF910BD5C
:1005900010B5042000F088F910BD72B600BFFEE768
:1005A0000146002291F82100022808D00420886327
:1005B00000BF002081F8200000BF012070470868BC
:1005C000006820F00E000B6818600868006820F0D2
:1005D00001000B68186091F8400000F01C03012036
:1005E0009840CB6B5860012081F8210000BF0020AB
:1005F00081F8200000BF1046E0E770B504460025F2
:1006000094F82100022803D00420A063012520E0F3
:100610002068006820F00E002168086020680068EB
:1006200020F001002168086094F8400000F01C01EF
:1006300001208840E16B4860012084F8210000BF60
:10064000002084F8200000BF606B10B12046616B71
:100650008847284670BD70B50446E06B0568206881
:10066000066894F8400000F01C01042088402840EF
:10067000E0B106F00400C8B12068006800F0200076
:1006800028B92068006820F004002168086094F808
:10069000400000F01C0104208840E16B4860E06AE3
:1006A000002856D02046E16A884752E094F840007E
:1006B00000F01C0102208840284018B306F0020018
:1006C00000B32068006800F0200040B9206800688E
:1006D00020F00A0021680860012084F8210094F8C5
:1006E000400000F01C0102208840E16B486000BF20
:1006F000002084F8200000BFA06A50B32046A16A01
:10070000884726E094F8400000F01C01082088404B
:100710002840F0B106F00800D8B12068006820F049
:100720000E002168086094F8400000F01C010120D0
:100730008840E16B48600120A06384F8210000BF7D
:10074000002084F8200000BF206B10B12046216BF0
:10075000884770BD014609B9012070471E4B0868E3
:1007600098420BD21D4B0868C01A1423B0FBF3F05B
:100770008000086419480838C8630AE0164B086806
:10078000C01A1423B0FBF3F0800008641248083844
:10079000C863022081F821000868026847F6F070FB
:1007A0008243D1E901031843CB6818430B6918430E
:1007B0004B6918438B691843CB6918430243086897
:1007C000026000208863012081F82100002081F868
:1007D000200000BFC1E7000008640240086002403A
:1007E0002DE9F04104460D4616461F464FF000081D
:1007F00000BF94F82000012802D10220BDE8F0815A
:10080000012084F8200000BF94F8210001282CD199
:10081000022084F821000020A0632068006820F0F6
:100820000100216808603B46324629462046FFF712
:1008300091FEE06A30B12068006840F00E00216847
:1008400008600BE02068006820F004002168086060
:100850002068006840F00A0021680860206800688D
:1008600040F001002168086006E000BF002084F825
:10087000200000BF4FF002084046BFE770B50446B5
:1008800000F010F906462546681C10B104480068BF
:10089000054400BF00F006F9801BA842FAD370BDE2
:1008A000100000207047000010B50446044800689E
:1008B000204020B1024804602046FFF7F3FF10BD3E
:1008C0001404014078B503460A46002100240020A4
:1008D000C4E001268E40156805EA0604002C72D09B
:1008E000157905F00305012D04D0157905F00305F0
:1008F000022D13D198684E000325B540A8434E0041
:10090000D568B54028439860586801258D40A843B4
:100910001579C5F300158D4028435860157905F009
:100920000305032D09D0D8684E000325B540A84320
:100930004E009568B5402843D860157905F0030549
:10094000022D13D1CE0803F1200555F826004D07DE
:10095000EE0E0F25B540A8434E07F60E1569B540BB
:100960002843CE0803F1200545F8260018684E00FC
:100970000325B540A843157905F003054E00B540A1
:1009800028431860556805F44035002D65D000BF38
:10099000354D2D6845F00105334E356035462D68DF
:1009A00005F00105009500BF00BF304D8E0855F8D9
:1009B00026008D072E0F0F25B540A8432C4DAB42C6
:1009C00002D1002515E048E02A4DAB4201D10125B6
:1009D0000FE0294DAB4201D102250AE0274DAB4281
:1009E00001D1032505E0264DAB4201D1042500E0ED
:1009F00005258E07360FB54028431C4D8E0845F857
:100A00002600204D2868A043556805F4801505B1DF
:100A100020431C4D28602D1D2868A043556805F40F
:100A2000001505B12043174D2D1D2860154D2D1FB4
:100A30002868A043556805F4003505B12043114DE1
:100A40002D1F28602D1F2868A043556805F48035A8
:100A500005B120430B4D083D2860491C1568CD4069
:100A6000002D7FF436AF78BD2038024008000140E9
:100A7000000002400004024000080240000C024056
:100A80000010024008040140024613690B400BB1FC
:100A9000012000E0002070470AB1816101E00B04F1
:100AA000836170470148006870470000080000201B
:100AB0000348006803490968084401490860704711
:100AC000080000201000002010B50024032000F0D2
:100AD000B3F80F2000F008F808B1012401E000F09D
:100AE0002FF8204610BD000070B5044600251148BF
:100AF0000068D8B10F4800684FF47A71B1FBF0F08C
:100B00000D490968B1FBF0F6304600F039FD58B9DF
:100B1000102C07D200222146501E00F04FF8074843
:100B2000046004E0012502E0012500E001252846DB
:100B300070BD000010000020140000200C000020F8
:100B400008B500BF1448006840F000401249086032
:100B50000846006800F00040009000BF00BF00BFE2
:100B6000081F006840F00100091F0860084600687F
:100B700000F00100009000BF00BF00BF081D00682A
:100B800040F08050091D08600846006800F0805061
:100B9000009000BF00BF08BD24380240014608464F
:100BA000002809DB00F01F0301229A4043099B0043
:100BB00003F1E023C3F8002100BF70472DE9F05F87
:100BC00080460D461646002702F0AEFC0746394621
:100BD0002A46334601F00700C0F1070ABAF1040FB4
:100BE00002D94FF0040A01E0C0F1070AD14600F132
:100BF000040ABAF1070F02D24FF0000A01E0A0F197
:100C0000030AD4464FF0010A0AFA09FAAAF1010AC6
:100C10000AEA020A0AFA0CFA4FF0010B0BFA0CFB73
:100C2000ABF1010B0BEA030B4AEA0B0421464046E9
:100C300002F082FCBDE8F09F00BF00F00702064B07
:100C400019684FF6FF031940044B0B4343EA022196
:100C5000014B196000BF70470CED00E00000FA0581
:100C600000BF00BF00BF00BF00BFBFF34F8F00BF7A
:100C700000BF00BF0948006800F4E060084908436D
:100C8000001D0649086000BF00BF00BFBFF34F8FC3
:100C900000BF00BF00BF00BF00BFFDE70CED00E0DC
:100CA0000000FA052DE9F04104460D4614B9012073
:100CB000BDE8F0817E48006800F00100A84218D22B
:100CC00000BF012D05D17A48006840F00400784942
:100CD00008607748006820F00100284374490860E4
:100CE00000BF0846006800F00100A84201D00120C2
:100CF000DEE7207800F00200022807D16D48006886
:100D000020F0F000A16808436A490860207800F0EC
:100D1000010000287FD06068022807D165480838A4
:100D2000006800F40030F8B90120C1E760680328CA
:100D300007D160480838006800F00070A0B90120B1
:100D4000B6E76068012807D15A480838006800F003
:100D5000020048B90120ABE756480838006800F4A3
:100D6000007008B90120A3E75248006820F0030092
:100D7000616808434F490860FFF794FE06466068C3
:100D8000022810D108E0FFF78DFE801B41F2883168
:100D9000884201D903208BE74648006800F00C0028
:100DA0000828F0D137E06068032810D108E0FFF789
:100DB00079FE801B41F28831884201D9032077E710
:100DC0003C48006800F00C000C28F0D123E060687B
:100DD000012810D108E0FFF765FE801B41F2883141
:100DE000884201D9032063E73248006800F00C0014
:100DF0000428F0D10FE008E0FFF754FE801B41F219
:100E00008831884201D9032052E72A48006800F05F
:100E10000C000028F0D12648006800F00100A8422C
:100E200018D900BF012D05D12148006840F0040009
:100E30001F4908601E48006820F0010028431C4933
:100E4000086000BF0846006800F00100A84201D019
:100E500001202DE7207800F00400042807D1154870
:100E6000006820F4E060E1680843124908602078D7
:100E700000F00800082808D10E48006820F46050EF
:100E8000216940EAC1000B49086000F041F80949B6
:100E90000968C1F30311084A515CC840074908605A
:100EA00007480068FFF720FE0746384600E70000C5
:100EB000003C02400838024093460008140000201D
:100EC0000C0000200148006870470000140000205A
:100ED00000B5FFF7F7FF04490968C1F30221034A8F
:100EE000515CC84000BD000008380240A34600081D
:100EF00000B5FFF7E7FF04490968C1F3C221034ABF
:100F0000515CC84000BD000008380240A3460008FC
:100F10002DE9F05F2248D0F8009009F00C0070B382
:100F2000042804D0082804D00C2829D103E01D4D42
:100F300032E01D4D30E01D48C9F3834110F801A097
:100F4000C9F38150441C1648006800F4803050B149
:100F50001548A0FB0A700146224600233846FFF7D9
:100F60004FF9064609E00F48A0FB0A7001462246E9
:100F700000233846FFF744F9064635460CE000E00A
:100F800000BF0748001F0068C0F3423B0BF101009F
:100F900001218140CD0300BF00BF2846BDE8F09F7E
:100FA000083802400024F40000127A008A46000843
:100FB0002DE9F843044614B90120BDE8F883FE4842
:100FC000006800F00C06FC48006800F480372078C8
:100FD00000F00100002875D0082E04D00C2E0ED190
:100FE000B7F5803F0BD1F4480838006800F40030B2
:100FF000002867D06068002864D10120DDE700BFC9
:101000006068012808D1EC480838006840F4803056
:10101000E949083908602DE0606868B9E648083891
:10102000006820F48030E449083908600846006808
:1010300020F4802008601DE0606805280DD1DE489E
:101040000838006840F48020DB4908390860084609
:10105000006840F4803008600CE0D7480838006829
:1010600020F48030D449083908600846006820F42C
:101070008020086000BF606890B1FFF713FD05464F
:1010800006E0FFF70FFD401B642801D9032094E719
:10109000C9480838006800F400300028F1D011E099
:1010A000FFF700FD054606E0FFF7FCFC401B642847
:1010B00001D9032081E7C0480838006800F40030F7
:1010C0000028F1D1207800F00200022853D1042E2C
:1010D00002D00C2E17D1B7B9B7480838006800F015
:1010E000020020B1E068012801D0012065E7B24884
:1010F000001F006820F4F850216940EA0120AE4941
:10110000091F086037E0E06800B30120AB490860C0
:10111000FFF7C8FC054606E0FFF7C4FC401B0228A9
:1011200001D9032049E7A4480838006800F002000C
:101130000028F1D0A048001F006820F4F850216971
:1011400040EA01209C49091F086014E000209B49E7
:101150000860FFF7A7FC054606E0FFF7A3FC401B6D
:10116000022801D9032028E793480838006800F0D6
:1011700002000028F1D1207800F01000102871D171
:10118000F6BB8D480838006800F4007018B1A069FB
:1011900008B9012011E78849091F206A096801F48C
:1011A0006041884219D9206A01F098F908B10120FC
:1011B00003E78148001F006820F46040216A08436B
:1011C0007D49091F0860217F7B48001F006861F38B
:1011D0001F607949091F08601AE07748001F0068FE
:1011E00020F46040216A08437349091F0860217F89
:1011F0007148001F006861F31F606F49091F00E01C
:1012000020E00860206A01F069F908B10120D4E605
:101210000121206A01EB503101208840C00366495A
:101220000968C1F30311664A515CC840654908600A
:1012300065480068FFF758FC8046B8F1000F42D0BF
:101240004046BAE6A06948B301205C490862FFF74E
:1012500029FC054607E0FFF725FC401B022802D9C0
:101260000320AAE62FE054480838006800F4007014
:101270000028F0D05048001F006820F46040216A28
:1012800008434D49091F0860217F4B48001F006833
:1012900061F31F604849091F086014E000204749B6
:1012A0000862FFF7FFFB054606E0FFF7FBFB401B6C
:1012B000022801D9032080E63F480838006800F47E
:1012C00000700028F1D1207800F0080008282CD107
:1012D0006069A8B101203D490860FFF7E3FB0546BE
:1012E00006E0FFF7DFFB401B022801D9032064E67C
:1012F00031482C30006800F002000028F1D014E0E2
:10130000002032490860FFF7CDFB054606E0FFF7F5
:10131000C9FB401B022801D903204EE626482C3089
:10132000006800F002000028F1D1207800F00400ED
:1013300004286ED14FF000091F481C30006800F0EF
:10134000805088B900BF1C481C30006840F08050B5
:1013500019491C3108600846006800F08050009070
:1013600000BF00BF4FF001091948006800F4807009
:10137000B0B91748006840F4807015490860FFF75D
:1013800091FB054606E0FFF78DFB401B642801D961
:10139000032012E60E48006800F480700028F2D0A6
:1013A00000BFA068012817D103482C30006840F422
:1013B000807001492C310DE008380240000047429E
:1013C00093460008140000200C00002080064742CD
:1013D00000700040086028E0A06858B966480068BE
:1013E00020F48070644908600846006820F480603A
:1013F00008601AE0A06805280CD15F48006840F436
:1014000080605D4908600846006840F480700860AC
:101410000BE040E05848006820F4807056490860AE
:101420000846006820F48060086000BFA06898B19A
:10143000FFF738FB054608E0FFF734FB401B41F29D
:101440008831884201D90320B7E54B48006800F491
:1014500000700028F0D012E0FFF724FB054608E0FA
:10146000FFF720FB401B41F28831884201D903205D
:10147000A3E54148006800F400700028F0D1B9F1FC
:10148000010F07D13C481038006820F080503A49DD
:101490001039086000BF606AA8B30C2E52D0606A91
:1014A000022839D1002035490866FFF7FBFA0546C6
:1014B00006E0FFF7F7FA401B022801D903207CE57C
:1014C0002D483438006800F000700028F1D1D4E9CC
:1014D0000A010843216B084327492C39096821F484
:1014E0007D01084324492C390860012023490866FE
:1014F000FFF7D8FA054607E0FFF7D4FA401B0228A9
:1015000002D9032059E535E01B483438006800F063
:1015100000700028F0D02DE0002018490866FFF781
:10152000C1FA054606E0FFF7BDFA401B022801D9C3
:10153000032042E510483438006800F000700028AD
:10154000F1D117E0606A012800D136E50A482C384D
:10155000076807F48031A06A814209D107F470114D
:10156000E06A814204D107F44001206B814201D03E
:10157000012022E5002020E53438024000004742E7
:1015800070B504462546681EB0F1807F01D3012066
:101590000FE0681E4FF0E02148610F214FF0FF304F
:1015A00001F0CAFF00204FF0E021886107200861A8
:1015B000002070BD30B502460B4600BF92F83800DF
:1015C000012801D1022030BD012082F8380000BF7F
:1015D000022082F83900106844681068816824F09D
:1015E000700418680443106844601068B0F1804FBC
:1015F0000BD00E4D1068A84207D00D4D1068A842C0
:1016000003D00C4D1068A84205D121F08001586824
:10161000014310688160012082F8390000BF00207A
:1016200082F8380000BF00BFCDE700000004004092
:10163000000800400008014010B504460CB9012024
:1016400010BD94F8390028B9002084F838002046ED
:1016500000F01AF8022084F83900211D206801F0FA
:1016600051F9012084F83E0000BF84F83A000121BE
:101670003B2001553C2001553D20015500BF012074
:1016800084F839000020DBE738B504462068B0F163
:10169000804F16D100BF1848006840F0010016497D
:1016A00008600846006800F00100009000BF00BF1D
:1016B000002211461C20FFF781FA1C20FFF76EFA6A
:1016C00019E00E492068884215D100BF0A48006819
:1016D00040F00200084908600846006800F0020077
:1016E000009000BF00BF002211461D20FFF766FAE0
:1016F0001D20FFF753FA38BD243802400004004093
:10170000014691F83900012801D0012070470220DC
:1017100081F839000868C06840F001000B68D860A3
:101720000868B0F1804F0BD0104B0868984207D082
:101730000F4B0868984203D00E4B086898420CD1B2
:101740000868806800F00702062A0CD00868006864
:1017500040F001000B68186005E00868006840F080
:1017600001000B6818600020D0E700000004004072
:1017700000080040000801402DE9F04104460D46F4
:10178000002700BF94F83800012802D10220BDE8EC
:10179000F081012084F8380000BF022084F839006D
:1017A0002068866826F0770626F47F4620688660E3
:1017B0002868502833D00CDC202850D004DC0028C6
:1017C0004BD0102851D149E0302849D040284CD185
:1017D00039E060282DD0702807D0B0F5805F03D0A5
:1017E000B0F5005F41D10DE041E0D5E902136A6830
:1017F000206801F0E4F82068866846F077062068E3
:10180000866034E0D5E902136A68206801F0D7F8F1
:101810002068806840F480402168886027E0EA689A
:101820006968206801F044F95021206801F0D2F87D
:101830001DE0EA686968206801F04DF960212068C0
:1018400001F0C8F813E0EA686968206801F030F92F
:101850004021206801F0BEF809E000BF00BF00BFD2
:101860002968206801F0B6F801E0012700BF00BF39
:10187000012084F8390000BF002084F8380000BF40
:10188000384684E7704770B504462068C56820680C
:10189000066906F00200022819D105F002000228AC
:1018A00015D1401F216808610120207620688069D9
:1018B00000F0030018B12046FFF7E4FF05E02046E2
:1018C00000F0AAF8204600F053F90020207606F038
:1018D0000400042819D105F00400042815D1C043E0
:1018E00021680861022020762068806900F4407039
:1018F00018B12046FFF7C6FF05E0204600F08CF83F
:10190000204600F035F90020207606F0080008286F
:1019100019D105F00800082815D1C04321680861D5
:10192000042020762068C06900F0030018B120462A
:10193000FFF7A8FF05E0204600F06EF8204600F013
:1019400017F90020207606F01000102819D105F0B4
:101950001000102815D1C0432168086108202076A6
:101960002068C06900F4407018B12046FFF78AFF74
:1019700005E0204600F050F8204600F0F9F800207D
:10198000207606F0010048B105F0010030B16FF09B
:10199000010021680861204600F048F906F0400087
:1019A000402809D105F04000402805D1C0432168F6
:1019B0000861204600F03BF970BD000010B586B00C
:1019C0000446142101A8FEF71DFD2068B0F1804FE8
:1019D0001BD100BF0E48006840F002000C490860AF
:1019E0000846006800F00200009000BF00BF40F60B
:1019F00008400190022002900020039004900120F2
:101A0000059001A90348FEF75DFF06B010BD000078
:101A10001C3802400004024070472DE9F0410446A2
:101A20000D461646002700BF94F83800012802D161
:101A30000220BDE8F081012084F8380000BF36B1F3
:101A4000042E1BD0082E31D00C2E5ED145E0294645
:101A5000206800F0C8FF2068806940F00800216815
:101A600088612068806920F004002168886120680E
:101A70008069E96808432168886148E02946206850
:101A800000F0C9FF2068806940F400602168886127
:101A90002068806920F480602168886120688069FE
:101AA000E96840EA01202168886130E02946206821
:101AB00000F0CBFF2068C06940F008002168C861D1
:101AC0002068C06920F004002168C8612068C069EE
:101AD000E96808432168C86119E02946206800F0D8
:101AE000CDFF2068C06940F400602168C8612068AB
:101AF000C06920F480602168C8612068C069E96815
:101B000040EA01202168C86101E0012700BF00BF51
:101B100000BF002084F8380000BF384689E710B5C0
:101B200004460CB9012010BD94F8390028B90020F2
:101B300084F83800204600F01AF8022084F83900B2
:101B4000211D206800F0DEFE012084F83E0000BF69
:101B500084F83A0001213B2001553C2001553D20ED
:101B6000015500BF012084F839000020DBE77047F1
:101B70007047000070B504460D4615B994F83A0058
:101B80000BE0042D02D13B20005D06E0082D02D1C0
:101B90003C20005D01E03D20005D012801D00120D6
:101BA00070BD1DB9022084F83A000EE0042D03D167
:101BB00002213B20015508E0082D03D102213C20E1
:101BC000015502E002213D200155012229462068ED
:101BD00000F0E4FE2068B0F1804F0BD0104920687F
:101BE000884207D00F492068884203D00E492068F8
:101BF00088420CD12068806800F00706062E0CD0C1
:101C00002068006840F001002168086005E0206855
:101C1000006840F00100216808600020C0E7000073
:101C20000004004000080040000801407047704771
:101C3000704770B50446002520684069C0F3C015A0
:101C400094F84100212817D1B5B100BF00BF216829
:101C5000143151E8001F21F080002168143141E85F
:101C60000002002AF3D100BFA06B10B1A06BFEF7F9
:101C700097FC204601F059F820684069C0F38015B0
:101C800094F84200222817D1B5B100BF00BF2168E7
:101C9000143151E8001F21F040002168143141E85F
:101CA0000002002AF3D100BFE06B10B1E06BFEF739
:101CB00077FC204600F0F3FF002070BD7047000065
:101CC0002DE9F84F0446206805682068C66820683A
:101CD00047694FF00009CA4605F00F09B9F1000F36
:101CE0000AD105F0200038B106F0200020B12046CE
:101CF00001F02EF8BDE8F88FB9F1000F7CD007F0A5
:101D0000010018B906F49070002875D005F00100A4
:101D100030B106F4807018B1606C40F0010060646E
:101D200005F0040030B107F0010018B1606C40F01C
:101D30000200606405F0020030B107F0010018B144
:101D4000606C40F00400606405F0080048B106F0E3
:101D5000200010B907F0010018B1606C40F00800D5
:101D60006064606C002846D005F0200028B106F0C1
:101D7000200010B1204600F0EBFF20684069C0F35E
:101D8000801A606C00F0080010B9BAF1000F2DD075
:101D9000204600F084FF2068406900F040004028A1
:101DA00020D100BF00BF2168143151E8001F21F08D
:101DB00040002168143141E80002002AF3D100BF3D
:101DC000E06B50B17E48E16B4863E06BFEF715FCB9
:101DD00088B1E06B416B88470DE02046FFF76EFF4E
:101DE00009E009E02046FFF769FF04E02046FFF71D
:101DF00065FF002060647DE7206B012877D105F046
:101E00001000002873D006F010000028FAD000BFA0
:101E100000200090206800680090206840680090D2
:101E200000BF00BF2068406900F0400040286DD12D
:101E3000E06B006840681FFA80F8B8F1000F57D0D7
:101E4000A08D404554DDA4F82E80E06B80692028E9
:101E500043D000BF00BF21680C3151E8001F21F4BE
:101E6000807021680C3141E80002002AF3D100BFE4
:101E700000BF00BF2168143151E8001F21F00100AC
:101E80002168143141E80002002AF3D100BF00BFED
:101E900000BF2168143151E8001F21F04000216883
:101EA000143141E80002002AF3D100BF202084F859
:101EB00042000020206300BF00BF21680C3151E8C0
:101EC000001F21F0100021680C3141E80002002AB7
:101ED000F3D100BFE06BFEF763FB02206063A08DCF
:101EE000E28D801A81B22046FFF7A2FE0DE050E09D
:101EF000A08D404509D1E06B8069202805D10220E2
:101F00006063A18D2046FFF793FEF3E6A08DE18D7F
:101F1000401A1FFA80F8E08DD0B3B8F1000F37D027
:101F200000BF00BF21680C3151E8001F21F4907000
:101F300021680C3141E80002002AF3D100BF00BF44
:101F400000BF2168143151E8001F21F00100216811
:101F5000143141E80002002AF3D100BF202084F8A8
:101F600042000020206300BF00BF21680C3151E80F
:101F7000001F21F0100021680C3141E80002002A06
:101F8000F3D100BF0220606341462046FFF750FEB8
:101F9000B0E605F0800030B106F0800018B12046B0
:101FA00001F098F8A6E605F0400030B106F04000D8
:101FB00018B1204600F0A9FE9CE600BF9AE600009A
:101FC000FF2A000810B504460CB9012010BDA06915
:101FD00000B100E000BF94F8410028B9002084F867
:101FE0004000204600F02AF8242084F841002068B0
:101FF000C06820F400502168C860204600F026FF29
:102000002068006920F490402168086120684069D8
:1020100020F02A00216848612068C06840F4005020
:102020002168C86000206064202084F8410084F8A2
:1020300042000020606300BFC8E7000010B586B012
:102040000446142101A8FEF7DDF9364920688842CC
:1020500065D100BF3448006840F4804032490860D0
:102060000846006800F48040009000BF00BF00BF39
:10207000081F006840F00100091F0860084600685A
:1020800000F00100009000BF00BF4FF4C06001905D
:102090000220029000200390032004900720059066
:1020A00001A92248FEF70EFC2148224908600020C1
:1020B000486000211F4881608021C16000210161CA
:1020C00041618161C161FEF745FB08B1FEF765FA28
:1020D00000BF1848E063446200BF15481438164931
:1020E0000860102048600021134881608021C16091
:1020F0000021016141618161C161FEF72BFB08B1E3
:10210000FEF74BFA00BF0C48A063446200BF0022F8
:1021100011462520FEF752FD2520FEF73FFD06B0B3
:1021200010BD00000038014020380240000002408D
:1021300058600240E00100202402002070B50446EF
:102140000D46164694F8420020280BD105B10EB971
:10215000012070BD0020206332462946204600F051
:102160004DFFF6E70220F4E770477047F7B50446E5
:10217000154694F8410020283ED1019800B10DB9D0
:102180000120FEBD01982062A584E58400206064E2
:10219000212084F841001948A16B88621848A16B7E
:1021A000C8621848A16B08630020A16B486301AEA8
:1021B00023681A1D31682B46A06BFEF711FB30B166
:1021C00010206064202084F841000120D9E76FF0DE
:1021D00040002168086000BF00BF2168143151E849
:1021E000001F41F080002168143141E80002002AFC
:1021F000F3D100BF0020C4E70220C2E7392C000859
:10220000912C0008112B00087047704700BFFEE7B3
:1022100008B500BF0E48006840F080700C490860A7
:102220000846006800F08070009000BF00BF0022E8
:1022300011460E20FEF7C2FC0E20FEF7AFFC002276
:1022400011460F20FEF7BAFC0F20FEF7A7FC08BDD1
:102250001C38024000B587B0142102A8FEF7D2F85E
:1022600000BF3D48006840F020003B490860084638
:10227000006800F02000019000BF00BF00BF0846CA
:10228000006840F0020008600846006800F00200A4
:10229000019000BF00BF00BF0846006840F0010089
:1022A00008600846006800F00100019000BF00BF10
:1022B000002248F202212948FEF7EEFB01224FF4EA
:1022C000E0412648FEF7E8FB00224FF480712448E5
:1022D000FEF7E2FB052002904FF444100390022029
:1022E000049002A91D48FEF7EDFA48F20220029080
:1022F00001200390022004900120059002A91748B4
:10230000FEF7E0FA4FF4E0400290012003900490C1
:102310000220059002A91148FEF7D4FA4FF480700C
:1023200002900120039000200490059002A90C481F
:10233000FEF7C8FA002211460620FEF73FFC0620F1
:10234000FEF72CFC002211460820FEF737FC08207F
:10235000FEF724FC07B000BD1C3802400004024018
:102360000000024000B58BB0002007900890099053
:102370000A900590069001900290039004904FF00F
:1023800080402849086040F23F10486000212548FD
:10239000816040F2E731C160002101614161FFF7D6
:1023A0004BF908B1FEF7F9F84FF48050079007A9F0
:1023B0001C48FFF7E1F908B1FEF7EFF81948FFF7FD
:1023C000AEFB08B1FEF7E9F800200590069005A9DC
:1023D0001448FFF7EFF808B1FEF7DFF8602001902E
:1023E0000020029003900490042201A90D48FFF7F9
:1023F00014FB08B1FEF7D1F8082201A90948FFF73C
:102400000CFB08B1FEF7C9F80C2201A90548FFF73B
:1024100004FB08B1FEF7C1F80248FFF7CFFA0BB092
:1024200000BD00001801002000B587B00020039017
:102430000490059006900190029015481549086097
:102440001F2048600021134881604FF6FF71C16072
:102450000021016180214161FFF7EEF808B1FEF72C
:102460009CF84FF48050039003A90A48FFF784F9C1
:1024700008B1FEF792F800200190029001A90548EA
:10248000FFF798F808B1FEF788F807B000BD000024
:10249000000400405801002010B50B480B490860AB
:1024A0004FF4E1304860002108488160C16001615B
:1024B0000C21416100218161C161FFF783FD08B1F9
:1024C000FEF76BF810BD00000038014098010020B5
:1024D00000BFFEE700BFFEE77047000018B50346E7
:1024E00000222548006800F0F00050BB22481C3054
:1024F000006800F0805020B12048006800F4C0510E
:1025000018E000BF1C481C30006840F080501A4C96
:102510001C3420602046006800F08050009000BF0E
:1025200000BF1648006800F4C0512046006820F043
:1025300080502060B1F5C05F03D1B3F5404F00D1AA
:10254000012200BF012A05D10D48006840F00400B7
:102550000B4C20600A48006820F001001043084C32
:10256000206000BF2046006800F00100904201D0CA
:10257000012018BD0020FCE7083802400070004030
:10258000003C024010B500F01BFE10BD2DE9F041EB
:1025900004460D46164600BF0D48007808B900F005
:1025A0000FFE00BFEFF311800746202080F3118853
:1025B00000BF00BF32462946204600F00BF8804697
:1025C000F8B280F3118800BF00BF4046BDE8F0813B
:1025D0007C0200202DE9F047074688461646C24691
:1025E00007EB47011B4800EBC109D9F8140020B1E3
:1025F000012811D0022826D11EE0484600F018FE1E
:102600000546B54201D2002405E034463246514623
:10261000484600F062FF18E0484600F009FE054613
:10262000B54201D2284600E03046044622465146D3
:10263000484600F052FF08E032465146484600F056
:1026400013FF044601E0002400BF00BF2046BDE8A0
:10265000F0870000940200202DE9F04F99B08246E7
:102660000D46144603A814904020159000201690A3
:10267000CDF860A0179000BF2E786D1C06B9DDE084
:10268000252E79D100274FF0010900BF2E78232E87
:1026900012D02B2E0CD02D2E02D0302E10D103E0D4
:1026A00047F001076D1C0EE047F002076D1C0AE0C1
:1026B00047F004076D1C06E047F008076D1C02E0B8
:1026C0004FF0000900BF00BFB9F1000FDED14FF09D
:1026D000000800BF2E78302E01DB392E00DD07E028
:1026E0006D1CA6F1300008EB880100EB4108F1E712
:1026F00000BF002013902E782E2E12D16D1C00BF2B
:102700002E78302E01DB392E00DD09E06D1CA6F19C
:102710003000139901EB810100EB41001390EFE7CA
:1027200000BF2E7800BF6C2E01D0682E02D16D1C28
:102730002E7800E000E0F6E700BF702E5DD008DCE8
:10274000252E6AD0582E35D0632E09D0642E69D13B
:1027500013E0732E3CD0752E1DD0782E62D128E068
:102760002168081D2060D1F8009009F0FF0B594640
:1027700014A800F057FE56E058E02168081D2060BC
:10278000D1F80090CDE900870A22494614A8139B8E
:1027900000F05CFD47E02168081D2060D1F8009042
:1027A000CDE900870A22494614A8139B00F0C4FD16
:1027B00039E000BF2168081D2060D1F80090CDE904
:1027C00000871022494614A8139B00F0B5FD2AE0AB
:1027D0002168081D2060D1F800B000BF9BF80060A0
:1027E0000BF1010B06B906E0314614A800F01AFE01
:1027F00017980028F2DA00BF15E02168081D206054
:10280000D1F80090002008210B461022CDE90010DD
:10281000494614A800F090FD05E0252114A800F019
:1028200001FE00E000BF00BF6D1C03E0314614A8AC
:1028300000F0F8FD17980028BFF61EAF00BF1798EC
:1028400000280ADD169820B103A95046169AFFF712
:102850009DFEDDE9161008441790179819B0BDE8E1
:10286000F08F704710B5FEF723F910BD00B593B097
:10287000342106A8FDF7C6FD142101A8FDF7C2FD0D
:102880001648006820F4C05040F400601349086006
:10289000022006900120099010200A9002200F903B
:1028A00000211091410411914105129106A8FEF7F3
:1028B0007FFB08B1FDF771FE0F200190032002900D
:1028C0000020039004900590012101A8FEF7EAF989
:1028D00008B1FDF762FE13B000BD000000700040BB
:1028E0007047000010B50248FEF7CDFF10BD000094
:1028F0001801002010B50248FEF7C5FF10BD00000A
:102900005801002010B50268B0F1804F0BD01D4B6C
:10291000984208D01C4B984205D01C4B984202D0DC
:102920001B4B984203D122F070024B681A43B0F15E
:10293000804F11D0134B98420ED0134B98420BD0BE
:10294000124B984208D0124B984205D0114B984236
:1029500002D0114B984203D122F44072CB681A4343
:1029600022F080030C6943EA04028B68C3620B689F
:102970008362036843F00403036001234361026040
:1029800010BD00000004004000080040000C0040A2
:1029900000080140000C01400010014030B501F07A
:1029A0001F05012404FA05F3046A9C430462046AC7
:1029B00001F01F0502FA05F52C43046230BD30B565
:1029C0000C46816821F47F4142EA032525432943CF
:1029D000816030BD0A46816821F0700142F0070332
:1029E00019438160704730B5036A056A25F0010517
:1029F00005624468826922F0700222F003020D68C9
:102A00002A4323F002038D682B43446082614D68A2
:102A10004563036230BD30B5036A056A25F01005D1
:102A200005624468826922F4E04222F440720D6833
:102A300042EA052223F020038D6843EA051344602F
:102A400082614D688563036230BD30B5036A056AF3
:102A500025F4807505624468C26922F0700222F094
:102A600003020D682A4323F400738D6843EA0523AB
:102A70004460C2614D68C563036230BD30B5036A0E
:102A8000056A25F4805505624468C26922F4E04273
:102A900022F440720D6842EA052223F400538D6847
:102AA00043EA05334460C2614D680564036230BD8A
:102AB00030B50B461446026A056A25F00105056229
:102AC000816921F0F00141EA041122F00A021A435F
:102AD0008161026230BD30B50B461446026A056A58
:102AE00025F010050562816921F4704141EA043145
:102AF00022F0A00242EA03128161026230BD70B589
:102B00000446656A0020E8852846FFF7D7F870BDBF
:102B100070B506460025746A20684069C0F3C01588
:102B200094F84100212805D125B10020E0842046F9
:102B300000F0FBF820684069C0F3801594F842006B
:102B4000222805D125B10020E085204600F0A7F815
:102B5000606C40F0100060642046FFF7AFF870BD75
:102B600070B505466C6A2868006800F020000028EF
:102B700042D1E08500BF00BF21680C3151E8001F41
:102B800021F4807021680C3141E80002002AF3D161
:102B900000BF00BF00BF2168143151E8001F21F0C1
:102BA00001002168143141E80002002AF3D100BF7E
:102BB00000BF00BF2168143151E8001F21F0400020
:102BC0002168143141E80002002AF3D100BF20201F
:102BD00084F84200206B01280ED100BF00BF21689D
:102BE0000C3151E8001F21F0100021680C3141E840
:102BF0000002002AF3D100BF00206063206B01288F
:102C000004D1A18D2046FFF713F802E02046FFF71C
:102C1000ABFA70BD70B505466C6A01206063206B2D
:102C2000012805D1A08D41082046FFF701F802E0F8
:102C30002046FFF79AFA70BD70B505466C6A2868A1
:102C4000006800F02000F8B90020E08400BF00BF59
:102C50002168143151E8001F21F0800021681431EF
:102C600041E80002002AF3D100BF00BF00BF216885
:102C70000C3151E8001F41F0400021680C3141E85F
:102C80000002002AF3D102E02046FFF7BDFA70BD32
:102C900070B50446656A2846FFF7B7FA70BD00BFF5
:102CA00000BF02680C3252E8002F22F490710268D3
:102CB0000C3242E80013002BF3D100BF00BF00BF6D
:102CC0000268143252E8002F22F001010268143227
:102CD00042E80013002BF3D100BF016B01290ED194
:102CE00000BF00BF02680C3252E8002F22F0100132
:102CF00002680C3242E80013002BF3D100BF202100
:102D000080F8421000210163704710B50446206826
:102D1000C06820F040002168C860202084F841008D
:102D20002046FFF771FA002010BD00BF00BF026807
:102D30000C3252E8002F22F0C00102680C3242E847
:102D40000013002BF3D100BF202180F84110704701
:102D5000F8B504460025002694F84200222873D1D5
:102D6000A068B0F5805F0BD1206948B9A66A2068D9
:102D70004068C0F308003080A06A801CA06214E0A4
:102D8000A56AA068B0F5805F03D0A06828B9206963
:102D900018B920684068287004E02068406800F096
:102DA0007F002870A06A401CA062E08D401E80B2A7
:102DB000E085002846D12068C06820F02000216806
:102DC000C8602068C06820F480702168C8602068EE
:102DD000406920F0010021684861202084F8420009
:102DE00000206063206B012826D10020206300BFF3
:102DF00000BF21680C3151E8001F21F0100021684C
:102E00000C3141E80002002AF3D100BF20680068BD
:102E100000F0100010280AD100BF002000902068A8
:102E20000068009020684068009000BF00BFA18D3E
:102E30002046FEF7FDFE02E02046FFF795F9002050
:102E4000F8BD01E00020FBE70220F9E770B5044679
:102E50002168096921F44051E26811432268116137
:102E60002269A168114362691143E26941EA0205DE
:102E70002168C96849F20C62914329432268D160F4
:102E80002168496921F44071A269114322685161A6
:102E9000594A2168914202D1FEF72AF801E0FEF773
:102EA00017F8E169B1F5004F53D100EBC00101EB18
:102EB000001162685200B1FBF2F16422B1FBF2F141
:102EC0000A0100EBC00101EB001163685B00B1FB7C
:102ED000F3F100EBC00303EB001366687600B3FB6D
:102EE000F6F36426B3FBF6F303EBC30606EB03131A
:102EF000A1EB8301322303EBC1016423B1FBF3F1A6
:102F000001F0F80102EB410200EBC00101EB0011FE
:102F100063685B00B1FBF3F100EBC00303EB00134C
:102F200066687600B3FBF6F36426B3FBF6F303EBB7
:102F3000C30606EB0313A1EB8301322303EBC101AC
:102F40006423B1FBF3F101F00701114422689160A1
:102F500051E000EBC00101EB001162689200B1FB8F
:102F6000F2F100EBC00202EB001263689B00B2FBBF
:102F7000F3F26423B2FBF3F202EBC20303EB02129F
:102F8000A1EB8201322202EB01116422B1FBF2F1CA
:102F900001F0F00100EBC00202EB001263689B003D
:102FA000B2FBF3F26423B2FBF3F201EB021200EB8B
:102FB000C00101EB001163689B00B1FBF3F100EB72
:102FC000C00303EB00136668B600B3FBF6F3642698
:102FD000B3FBF6F303EBC30606EB0313A1EB83018C
:102FE000322303EB01116423B1FBF3F101F00F0174
:102FF00011442268916070BD0038014077B581B0FE
:10300000044615460298A062A5850020606422202F
:1030100084F842002C48E16B88622C48E16BC8625E
:103020002B48E16B08630020E16B486302AE326815
:103030002368191D2B46E06BFDF7D2FB38B1102039
:103040006064202084F84200012004B070BD00BFFD
:103050000020009020680068009020684068009080
:1030600000BF00BF206970B100BF00BF21680C31F4
:1030700051E8001F41F4807021680C3141E80002E2
:10308000002AF3D100BF00BF00BF2168143151E80E
:10309000001F41F001002168143141E80002002ABC
:1030A000F3D100BF00BF00BF2168143151E8001FF9
:1030B00041F040002168143141E80002002AF3D1B8
:1030C00000BF0020C1E70000612B0008152C00089C
:1030D000112B0008014691F84100212828D1886869
:1030E000B0F5805F0BD1086948B90A6A1088C0F34F
:1030F00008000B685860086A801C086205E00B6ACB
:10310000581C086218780B685860C88C401E80B242
:10311000C88458B90868C06820F080000B68D8607F
:103120000868C06840F040000B68D8600020704715
:103130000220FCE738B51848FEF7C2FD16480068C3
:103140000068C0F300152DB301201449087000BFBA
:103150000020009010480068006800900E48006849
:103160004068009000BF00BF0B48FEF762FD0C48AE
:1031700000684068C4B260420A4908700846017895
:1031800009A001F01BF84FF480720B490248FEF7CA
:10319000D5FF00BF38BD00009801002005000020C9
:1031A000E001002004000020646D612072785F6CF3
:1031B000656E3A25640D0A001800002000BFFEE786
:1031C00010B5124C03202061606111A0A061134969
:1031D000E1614FF4806121620021A1626162E162DC
:1031E0000BA020660E4961661021A16600212167AF
:1031F000E16661670BA1E01DFDF779F80AA12046A1
:10320000FDF775F82020A07110BD00007C020020A1
:103210005465726D696E616C00000000240300202B
:10322000240700205254540053454747455200009C
:1032300010B501460A69CB689A4204D88C68641EAE
:10324000E41AA01801E0D41A601E10BD2DE9FC5F3D
:1032500006460F4692469846DDE90C45002F01DAF6
:10326000784200E0384683464FF0010903E09BFBBB
:10327000FAFB09F10109D345F9DAC84500D9C1467D
:1032800034B1002F03DB05F00400042800D1641ED4
:1032900005F0020010B1B8F1000F11D005F00100E7
:1032A00070B96CB108E0641E2021304600F0BAF815
:1032B000F068002800DA02E00CB1A145F3D300BFAA
:1032C000F068002836DB002F05DA7F422D213046DA
:1032D00000F0A8F807E005F00400042803D12B2132
:1032E000304600F09FF8F068002823DB05F002006C
:1032F000022814D105F0010088B9B8F1000F0ED1F1
:103300006CB108E0641E3021304600F08BF8F068A4
:10331000002800DA02E00CB1A145F3D300BFF06849
:10332000002807DB4346524639463046CDE9004582
:1033300000F002F8BDE8FC9F2DE9FC5F804689465D
:1033400015461E460C9CCDF804900127BB4605E0AF
:103350000198B0FBF5F001900BF1010B0198A84228
:10336000F6D25E4500D9B3460D9800F00100D0B901
:10337000CCB10D9800F00200022803D116B930201C
:10338000009001E02020009009E0641E4046009972
:1033900000F048F8D8F80C00002800DA02E00CB180
:1033A000A345F2D300BFD8F80C00002835DB09E0B4
:1033B000012E01D9761E04E0B9FBF7FAAA4500D226
:1033C00001E06F43F4E700BF00BFB9FBF7FA0AFB67
:1033D0001799134810F80A10404600F023F8D8F85F
:1033E0000C00002800DA03E0B7FBF5F7002FECD162
:1033F00000BF0D9800F0010078B174B109E0641EBF
:103400002021404600F00EF8D8F80C00002800DA21
:1034100002E00CB1A345F2D300BFBDE8FC9F000061
:10342000AB46000870B504460E46A568681C616886
:10343000814206D320684655681CA060E068401CA5
:10344000E060D4E9011088420DD1A26821682069AA
:10345000FFF79CF8A168884203D04FF0FF30E0608E
:1034600001E00020A06070BD2DE9F04704468946C8
:1034700017464FF0000AE56800BFD4F81080A84551
:1034800003D9A8EB0500461E04E0A5EB0800401C8C
:10349000A1680E1AA068401BB04201D9304601E075
:1034A000A068401B0646BE4201D2304600E03846C6
:1034B00006466168481932464946FCF73CFFB2446B
:1034C000B144BF1B3544A068A84200D10025E56087
:1034D000002FD2D15046BDE8F0872DE9F0470446D1
:1034E00089461546E668A068871BAF4208D961681F
:1034F00088192A464946FCF71EFF7019E06010E063
:10350000B8466168881942464946FCF714FFA5EBA6
:10351000070809EB070142466068FCF70CFFC4F896
:103520000C80BDE8F087000002480068C0F302206C
:10353000704700000CED00E010B5002804DB0A071E
:10354000130E054A135406E00A07140E034A00F04E
:103550000F031B1FD45410BD00E400E018ED00E081
:103560002DE9F04705460C461746601B00F082FF28
:103570008146394600F0AAFF804600F05FFF4619F9
:10358000AC4206DDA64202DD2046BDE8F087B0B2BF
:10359000FBE7A64201DA2046F7E7B0B2F5E7000004
:1035A0002DE9F74F8EB00024002500260F98032840
:1035B00002DD11B0BDE8F08FC8200D900A200C90FC
:1035C0004FF47A700B90934903C9CDE909014FF488
:1035D00080419148FDF758FA012801D1022000E00E
:1035E000012008900C240E98012808D10898012881
:1035F00002D1082504260AE00426082507E00898D9
:10360000012802D10826042501E004260825834864
:103610000068806B80B2ADF8180080480068C06B0D
:1036200080B2ADF81A007D480068006C80B2ADF839
:103630001C000F98401E09A931F81070109808B9A5
:10364000C82000E0109810901098401D0A2190FBAF
:10365000F1F01FFA80F8B8F1000F01D1012000E06D
:10366000404680464FF47A700590002004907FE039
:10367000404600F017FF0290049800F013FF0190FD
:10368000029900F019FE0390204600F0C9F806A93F
:1036900031F810000290039A0599FFF761FF814607
:1036A000304600F0BDF806A931F8100002904FF442
:1036B0007A71039AFFF754FF8246284600F0B0F86B
:1036C00006A931F8100002903946039AFFF748FF27
:1036D000834624B951480068C0F8349011E0042CA6
:1036E00004D14E480068C0F838900AE0082C04D194
:1036F0004A480068C0F83C9003E048480068C0F8B9
:10370000409026B945480068C0F834A011E0042E66
:1037100004D142480068C0F838A00AE0082E04D15D
:103720003E480068C0F83CA003E03C480068C0F890
:1037300040A025B939480068C0F834B011E0042D24
:1037400004D136480068C0F838B00AE0082D04D12A
:1037500032480068C0F83CB003E030480068C0F868
:1037600040B00A20FDF78AF80498401C80B204900B
:10377000049840457FF77CAF2CB94FF47A70274905
:103780000968486314E0042C05D14FF47A7023498A
:10379000096888630CE0082C05D14FF47A701F4942
:1037A0000968C86304E04FF47A701C49096808642A
:1037B0002EB94FF47A7019490968486314E0042E51
:1037C00005D14FF47A701549096888630CE0082E1A
:1037D00005D14FF47A7011490968C86304E04FF4C9
:1037E0007A700E49096808641DB90C48006847637F
:1037F0000EE0042D03D109480068876308E0082D16
:1038000003D106480068C76302E004480068076403
:1038100000BFCEE6844600080004024018010020E4
:10382000014600200A46D0B2704700002DE9F04161
:1038300004460F4600250026E578A5F1A1000528DD
:1038400055D2DFE800F0031D31454A0020790128F8
:103850000DDB207902280ADC6079052807DC207955
:1038600025490870607925490870002600E0012686
:103870003146A12000F06AFB01202149087037E0A1
:103880002079032807DC02201E49087020791E4990
:103890000870002600E001263146A22000F056FB09
:1038A00002201749087023E02079032807DC012053
:1038B00014490870207914490870002600E0012698
:1038C0003146A22000F042FB02200D4908700FE0B3
:1038D0000021A42000F03AFB0AE000F025FB0021C3
:1038E000A52000F033FB03200549087000BF00BF8E
:1038F00000BFBDE8F08100000000002001000020B2
:10390000060000200200002003000020FDF7DCF884
:10391000FEF7ACFF012211021F48FDF7BDF864203D
:10392000FCF7ACFF00224FF480711B48FDF7B4F8A0
:10393000FEF790FCFEF716FDFEF776FDFEF768FC3D
:10394000FEF7AAFD15A000F047FC18A000F036FC19
:103950001A480068C06840F0100018490968C8603B
:103960004FF4807216491548FEF7E8FB042115480C
:10397000FEF700F908211348FEF7FCF80C21114866
:10398000FEF7F8F81048FDF7BBFE03E000F0BAF9C7
:1039900000F026FAFAE70000000002407379737421
:1039A00065726D207374617274210A007072696EA1
:1039B000742074657374210A0000000098010020CF
:1039C00018000020180100205801002070B505469D
:1039D0000C46012D04D0022D19D0032D45D12DE028
:1039E000012C05D1002221032148FDF755F80DE0F7
:1039F000022C05D1012211031D48FDF74DF805E009
:103A000000224FF480511A48FDF746F82EE0012CB1
:103A100005D1002261031648FDF73EF80DE0022CA7
:103A200005D1012251031248FDF736F805E00022C6
:103A30004FF400510E48FDF72FF817E0012C05D187
:103A40000022A1030A48FDF727F80DE0022C05D15A
:103A5000012291030648FDF71FF805E000224FF40C
:103A600080410348FDF718F800E000BF00BF70BDBB
:103A7000000402402DE9F74F8CB0814692467F4A00
:103A8000D2E900109268CDE90A0209917C4C7B4A88
:103A90000C3207CA06AB07C3B9F1010F02DBB9F15B
:103AA000050F02DD0FB0BDE8F08FA9F1010009A9F3
:103AB00031F810500026B34630E00BF10101C8B2D6
:103AC0000D99FFF783FF06A850F82B0010B9206866
:103AD000406B11E006A850F82B00042802D12068A2
:103AE000806B09E006A850F82B00082802D1206856
:103AF000C06B01E02068006C04A921F81B0031F8BC
:103B00001B10681A002801DB014600E041420191C8
:103B10000199B14200DD019E0BF1010BBBF1030FD6
:103B2000CBDB06B9BEE70A27BAF1000F01D1C820E6
:103B300000E050468246384607EBD0710AEB61013F
:103B400091FBF7F11FFA81F8B8F1000F01D10120C4
:103B500000E04046804696FBF8F0039096FBF8F0B4
:103B600008FB106002900020019064E0DDF80CB0CA
:103B70000298002804DD0BF1010B0298401E029010
:103B800000204FE004A931F81010A9420FDA04A96F
:103B900031F81010594404AA22F8101004A931F881
:103BA0001010A94218DD04A921F8105014E004A94E
:103BB00031F81010A9420FDD04A931F81010A1EB63
:103BC0000B0104AA22F8101004A931F81010A94220
:103BD00002DA04A921F8105006A951F8201029B9D9
:103BE00004A931F81010226851631AE006A951F8AF
:103BF0002010042905D104A931F81010226891631E
:103C00000FE006A951F82010082905D104A931F8C0
:103C100010102268D16304E004A931F81010226862
:103C20001164401C0328ADDB3846FCF727FE0198E1
:103C3000401C80B201900198404597DB002019E0BC
:103C400006A951F8201011B921684D6311E006A9A9
:103C500051F82010042902D121688D6309E006A9DA
:103C600051F82010082902D12168CD6301E02168B4
:103C70000D64401C0328E3DB00BF13E76446000823
:103C80001801002070B506460D460024002003E010
:103C9000315C2144CCB2401CA842F9DB214604A08F
:103CA00000F08CFAFF2C01D1002070BD0220FCE74F
:103CB000636865636B2073756D20726573756C74D2
:103CC0003A253032780D0A0010B502460B46002026
:103CD000002103E0545C0444E0B2491C9942F9DB42
:103CE000C0F1FF0010BD70B504460D460022294604
:103CF0002046FFF7BFFE70BD10B5C82000F074FA73
:103D000010BD000030B5C1B000244FF4807101A88F
:103D1000FCF778FB23480078012801D041B030BD82
:103D200021480078AA2803D11F484078AA2808D043
:103D300000201E490870084601781B48FCF740FB2C
:103D4000ECE700201749087018480478002017494C
:103D500008702246144901A8FCF7EDFA13480178CF
:103D60001148FCF72DFB12A2214601A800F0E8F94A
:103D7000E01E81B20DF10700FFF784FF05463DB15B
:103D80000EA000F01BFA0021A62000F0DFF8C5E726
:103D90000FA000F013FA214601A8FFF747FD00BF6E
:103DA000BCE70000050000201800002004000020EF
:103DB0005541525433205245563A000063686563BA
:103DC0006B2073756D204552524F52210D0A000031
:103DD000636865636B2073756D204F4B210D0A007E
:103DE00010B500242348007800B910BD21480078A0
:103DF000012804D0022823D0032834D12DE01EA0AE
:103E000000F0DCF94FF480512548FCF73DFE012815
:103E100001D1022000E001200446224800788442BB
:103E200007D021A000F0CAF9FFF766FF6420FCF775
:103E300025FD1C48017825480078FFF754FF13E062
:103E40002348017823A000F0B9F900222E48017818
:103E50001F480078FFF7A4FB06E02CA000F0AEF9A5
:103E6000FFF74AFF00E000BF00BF002001490870D3
:103E700000BFBAE7060000205B4D4F544F525D2053
:103E8000736574206D6F746F722072756E20616E31
:103E9000642073706565646C6576656C210D0A003D
:103EA00000040240000000205B4D4F544F525D2043
:103EB000736574206D6F746F72207475726E2064F8
:103EC0006972656374696F6E210D0A00010000203C
:103ED000020000205B4D4F544F525D2073657420EB
:103EE0006D6F746F72207475726E212C675F4D6FE9
:103EF000746F725475726E446972656374696F6E23
:103F00003A2564210D0A0000030000205B4D4F5448
:103F10004F525D20736574206D6F746F72207374DF
:103F20006F70210D0A000000002004490870044948
:103F300008700449087004490870704700000020A8
:103F400001000020020000200300002070B504469C
:103F50000D4600207349087014217348FCF752FA8B
:103F6000AA21704802780078401C6E4B18706E4889
:103F70008154184602780078401C18706A488154B1
:103F8000A4F1A10006287DD2DFE800F0031C354E25
:103F9000869F0621634802780078401C614B1870A8
:103FA00061488154184601780078401C1A46107008
:103FB0005D484454104601780078401C10705A48FF
:103FC000455495E00621574802780078401C554B2F
:103FD000187055488154184601780078401C1A46DC
:103FE000107051484454104601780078401C1070FD
:103FF0004D4845547CE006214A4802780078401C30
:10400000484B187048488154184601780078401C85
:104010001A46107044484454104601780078401CF9
:1040200010704148455463E009213E480278007809
:10403000401C3C4B18703C4881541846017800786D
:10404000401C1A46107038484454384802781846C4
:1040500001780078401C1870334842543448017885
:10406000184602780078401C18702F488154314857
:104070000178184602780078401C18702A4881544C
:104080002D4800E033E00178184602780078401CA3
:104090001870254881542BE00621224802780078C8
:1040A000401C204B18702048815418460178007835
:1040B000401C1A4610701C48445410460178007881
:1040C000401C10701848455412E00522154801782C
:1040D0000078401C134B187013484254184601785E
:1040E0000078401C1A4610700F48445400E000BF8E
:1040F00000BF0C480078C01E81B20B48C01CFFF7FF
:10410000E3FD0646074801780078401C054A107018
:10411000054846541046027803490848FEF726F839
:1041200070BD000007000020680200200000002091
:104130000100002002000020030000209801002060
:104140002DE9F04105460C46174605B134B90DA0DE
:1041500000F034F8FCF784FDBDE8F08122463946D2
:104160000FA000F02BF8002605E0A95D11A000F0DB
:1041700025F8701C86B2A642F7DB08A000F01EF8F6
:1041800000BFE9E7496E76616C6964206172726113
:104190007920706172616D65746572730D0A00003B
:1041A000257320286C656E6774683A2564293A2067
:1041B0000000000030782530325820000FB408B5D8
:1041C00003A800906A4600200299FEF745FA0020F5
:1041D000009001B05DF814FB10B50446FEF7D2F96B
:1041E0002046FFF7EBFF10BD2DE9FE4F0746314D8E
:1041F0004FF064094FF00A0A07B964272868806BFA
:1042000000902868C06B01902868006C0290002420
:10421000002006E05DF82010A14201D95DF82040A1
:10422000401C0328F6DB0CB9BDE8FE8F0A2097FB83
:10423000F0F01FFA80F8B8F1000F01D14FF001083B
:10424000B4FBF8F631E0B44201D9A41B00E000242D
:10425000002025E05DF8201009B35DF820306343AD
:1042600004EB060CB3FBFCF208B9042104E00128BE
:1042700001D1082100E00C2111B92B685A630BE031
:10428000042902D12B689A6306E0082902D12B6821
:10429000DA6301E02B681A644DF8202000BF401C4F
:1042A0000328D7DB0A20FCF7E9FA002CCBD100BFAA
:1042B000BAE70000180100204FF47F0C1CEAD0126E
:1042C0001EBF1CEAD11392EA0C0F93EA0C0F00F008
:1042D000858090EA010F48BF42F4807240F4000CE0
:1042E00041F400002CF07F4120F07F4000B5814276
:1042F000A2EB03020FF2081CACEB504EC0F1000021
:104300009EF800E04FEA4E0E00FB0EFC38BF49005D
:104310004FEA2C1C02F5FA020CFB0EF34FEACE1EFC
:104320004FEA112C4FEAC1210EEB635E42EB2242B1
:104330000EFB0CFC4FEA1C5300FB03114FEA112C3F
:104340004FEA01310EFB0CFC4FEADC4C00FB0C1178
:10435000C14228BF09184CEB03335DF804EB10EBA6
:10436000410143EBC250B2F57C0F38BF704729D5ED
:1043700012F0F00F1CBF00F1C04000F00040704789
:10438000008182838485868788898B8C8D8E8F912E
:104390009293959697999A9C9D9FA0A2A3A5A7A852
:1043A000AAACAEB0B2B3B5B7B9BCBEC0C2C5C7C97E
:1043B000CCCED1D4D7D9DCDFE2E6E9ECF0F3F7FAE2
:1043C000FE0000004FEA400C0CF1807CBCF17E4FF7
:1043D00028BF7047B0F1C04000F03FB990EA010F2C
:1043E0000CEAD11348BF42F48072624538BF63457E
:1043F00007D213F47F0F16D080EA010000F00040CE
:10440000704710B500F0E3F8097EFC3E00F005B8F7
:1044100080EA010000F00040704780EA010000F0EF
:10442000004000F01AB912F47F0F04BF0248704731
:1044300080EA010000F011B90000C07F41000B0EBE
:10444000D3F19E0208D950F400034FEA032323FA64
:1044500002F048BF4042704710B500F0B8F800BF06
:1044600049922480002070476FF0004282EA2000C9
:104470007047000010F0004148BF4042B0FA80F39E
:1044800010FA03F2C3F19D030BD051EAC35101EBC3
:104490001220530638BF704700F1010008BF20F01A
:1044A00001007047B0FA80F310FA03F2C3F19D03E4
:1044B0000AD0D90501EB1220530638BF704700F12E
:1044C000010008BF20F00100704700004FF47F0C8E
:1044D0001CEAD0121EBF1CEAD11392EA0C0F93EA19
:1044E0000C0F00F0478090EA010F48BF42F4807241
:1044F0004FF0004C4CEA00204CEA012102EB030291
:10450000A0FB0113A2F50002002918BF43F001032C
:104510005B0028BF4FEA330342EB22425FEA132CD1
:104520004CEBC2502EBFBCEB436FB2F57C0F704713
:104530004FEA036CBCF1004F08BF20F00100B2F558
:104540007C0F38BF70470BD582F0FF0212F5803F19
:10455000C8BF704700F1C040D8BF00F000407047AE
:1045600000F5000C5FEA4C0C48BF7047B0F1C0404A
:1045700000F073B890EA010F0CEAD11348BF42F47F
:104580008072624538BF634504D280EA010000F0C2
:104590000040704710B500F01AF800BF8900013ED6
:1045A00000F007B800F009B85FEA410C5FEA1C6C44
:1045B00008D080EA010000F050B85FEA400C5FEAE2
:1045C0001C6CF6D14FF00040A0F5800070470EF152
:1045D000020E2EF0030E5EF8044B244204D44FEA80
:1045E0004102B2F17F4F11D84FEA4003B3F17F4F40
:1045F0000CD80ED14FEAD07CB2F17F4F0CEB4C0CB3
:104600000CF1020C08BF4CEBD17C04E04FF0080C1D
:1046100001E04FEAD17C0CEB4C0324FA03F404F0E4
:104620000704B4F1040C06D20EEB840CBDE8104074
:104630004CF0010C6047DFE80CF0070802024FF075
:104640000040A0F5800010BD0846420018BFD2F11E
:10465000807288BF00F0004010BDFF2141EAD050B9
:10466000C0057047E803EE02F4012C01640000006D
:1046700004000000080000000C000000BC029001D3
:10468000C8000000BC029001C800030406080C101A
:1046900018203000000000000000000102030406A2
:1046A00007080900000000010203043031323334EE
:1046B000353637383941424344454600DC46000828
:1046C000000000201800000060010008F446000807
:1046D00018000020800D00007C0100080000000090
:1046E00000000000000000001000000001000000B9
:0446F00068FF1F0040
:0400000508000125C9
:00000001FF
