:020000040800F2
:100000000805002001010008E9210008631F00081D
:10001000E52100086D010008F1290008000000003A
:10002000000000000000000000000000192200088D
:100030007101000800000000ED2100081B220008EB
:100040001B0100081B0100081B0100081B01000820
:100050001B0100081B0100081B0100081B01000810
:100060001B0100081B0100081B0100081B01000800
:100070001B0100081B0100081B0100081B010008F0
:100080001B0100081B0100081B0100081B010008E0
:100090001B0100081B0100081B0100081B010008D0
:1000A0001B0100081B0100081B0100081B010008C0
:1000B0008D2200089D2200081B0100081B0100087A
:1000C0001B0100081B0100081B0100081B010008A0
:1000D0001B010008E12900081B0100081B010008A2
:1000E0001B0100081B0100081B010008DFF80CD0F1
:1000F00000F02AF800480047992A00080805002067
:100100000648804706480047FEE7FEE7FEE7FEE7B1
:10011000FEE7FEE7FEE7FEE7FEE7FEE789220008CE
:10012000ED000008D2B201E000F8012B491EFBD21D
:1001300070470022F6E710B513460A4604461946F2
:10014000FFF7F0FF204610BD064C074D06E0E068C3
:1001500040F0010394E8070098471034AC42F6D30E
:10016000FFF7C8FF642B0008842B000800BFFEE7E0
:10017000704772B600BFFEE70146002291F82100E9
:10018000022808D00420886300BF002081F82000E6
:1001900000BF012070470868006820F00E000B685F
:1001A00018600868006820F001000B68186091F87A
:1001B000403001209840CB6B5860012081F821002D
:1001C00000BF002081F8200000BF1046E2E70000D9
:1001D00070B50446002594F82100022803D00420BD
:1001E000A063012548E02068006820F00E00216827
:1001F00008602068006820F00100216808601F493D
:100200002068884201D1012026E01C491431206871
:10021000884201D110201FE0184928312068884207
:1002200001D1801518E015493C312068884201D180
:10023000801411E0114950312068884202D14FF4F6
:10024000803009E00D4964312068884202D14FF4C2
:10025000801001E04FF080700849083948600120A3
:1002600084F8210000BF002084F8200000BF606BEC
:1002700010B12046616B8847284670BD08000240D7
:1002800070B5044600F0A6F906462546681C10B174
:1002900004480078054400BF00F09CF9801BA84288
:1002A000FAD370BD200000202DE9F8470346002254
:1002B00094466EE14FF0010808FA02F4D1F800808C
:1002C00008EA0400A0427DD1DFF8DCA2D1F8048066
:1002D000A8EB0A09D0453AD014DCB8F1030F50D08E
:1002E00009DCB8F1000F31D0B8F1010F1CD0B8F122
:1002F000020F49D120E0B8F1110F18D0B8F1120F58
:1003000042D11EE0B9F5881F25D006DCB9F5803F43
:1003100020D0B9F5801F37D11AE0B9F5001F18D0E9
:10032000B9F5041F30D117E0D1F80CC02DE0D1F899
:100330000C8008F1040C28E0D1F80C8008F1080CBE
:1003400023E0D1F80C8008F10C0C1EE000BF00BFC8
:1003500000BF00BF00BF00BFD1F80880B8F1000F98
:1003600002D14FF0040C0BE0D1F80880B8F1010F76
:1003700003D14FF0080C1C6102E04FF0080C5C61E7
:1003800003E04FF0000C00E000BF00BFFF2801D8E1
:10039000984601E003F104084646FF2802D84FEAD8
:1003A000820803E0A2F108084FEA88084746D6F819
:1003B00000804FF00F0909FA07F928EA09080CFA3A
:1003C00007F900E088E048EA0908C6F80080D1F89B
:1003D000048008F08058B8F1805F7DD100BFDFF85D
:1003E000CC81D8F8188048F00108DFF8C091C9F82E
:1003F0001880C846D8F8188008F00108CDF80080A9
:1004000000BF00BF4FEAB9384FEA920958F82950A7
:100410004FEA82784FEA18794FF00F0808FA09F886
:1004200025EA0805DFF88881434502D14FF000082E
:1004300016E0DFF88081434502D14FF001080FE05C
:10044000DFF87481434502D14FF0020808E0DFF87D
:100450006C81434502D14FF0030801E04FF00408DE
:100460004FEA82794FEA197908FA09F848EA05054E
:10047000DFF84C814FEA920948F82950D1F80480FE
:1004800008F48018B8F5801F0AD1DFF83881D8F851
:10049000008048EA0008DFF82C91C9F8008009E0E4
:1004A000DFF82081D8F8008028EA0008DFF81491EE
:1004B000C9F80080D1F8048008F40018B8F5001FCE
:1004C00010D1DFF8008108F10408D8F8008048EA6C
:1004D0000008DFF8F09000E05AE009F10409C9F8DB
:1004E00000800DE0DFF8DC8008F10408D8F8008017
:1004F00028EA0008DFF8CC9009F10409C9F8008067
:10050000D1F8048008F40038B8F5003F0ED1DFF8C8
:10051000B480A8F10408D8F8008048EA0008DFF8A1
:10052000A490A9F10409C9F800800DE0DFF89480D7
:10053000A8F10408D8F8008028EA0008DFF88490C1
:10054000A9F10409C9F80080D1F8048008F48038C2
:10055000B8F5803F0ED1DFF86C80A8F10808D8F814
:10056000008048EA0008DFF85C90A9F10809C9F8A2
:1005700000800DE0DFF84C80A8F10808D8F8008072
:1005800028EA0008DFF83C90A9F10809C9F80080C2
:10059000521CD1F8008028FA02F8B8F1000F7FF45D
:1005A00089AEBDE8F887000000001110001002407D
:1005B00000080140000C01400010014000140140FF
:1005C00008000140080401400AB1016101E00B0488
:1005D0000361704701480068704700001800002060
:1005E00003480068034909780844014908607047D6
:1005F000180000202000002010B50848006840F0D6
:10060000100006490860032000F0A8F80F2000F051
:1006100007F800F02BF8002010BD00000020024079
:1006200070B504460E4800784FF47A71B1FBF0F0D3
:100630000C490968B1FBF0F5284600F0F9FB08B158
:10064000012070BD102C07D200222146501E00F060
:1006500047F80548046001E00120F2E70020F0E7D8
:1006600020000020240000201C00002008B500BF4E
:100670001148806940F001000F498861084680698F
:1006800000F00100009000BF00BF00BF0846C06935
:1006900040F08050C8610846C06900F0805000906A
:1006A00000BF00BF00BF0549486820F0E06040F08F
:1006B0000070486000BF08BD00100240000001400B
:1006C00001460846002809DB00F01F0301229A407A
:1006D00043099B0003F1E023C3F8002100BF7047EA
:1006E0002DE9F05F80460D461646002702F08AF994
:1006F000074639462A46334601F00700C0F1070A8B
:10070000BAF1040F02D94FF0040A01E0C0F1070A60
:10071000D14600F1040ABAF1070F02D24FF0000AE5
:1007200001E0A0F1030AD4464FF0010A0AFA09FADF
:10073000AAF1010A0AEA020A0AFA0CFA4FF0010BBE
:100740000BFA0CFBABF1010B0BEA030B4AEA0B04AF
:100750002146404602F05EF9BDE8F09F00BF00F080
:100760000702064B19684FF6FF031940044B0B4371
:1007700043EA0221014B196000BF70470CED00E015
:100780000000FA0570B504460D460CB9012070BD95
:100790005A48006800F00700A8420ED25748006887
:1007A00020F007002843554908600846006800F01B
:1007B0000700A84201D00120E9E7207800F00200FC
:1007C00002281DD1207800F00400042805D14C48EF
:1007D000406840F4E0604A494860207800F0080032
:1007E000082805D14648406840F4605044494860B4
:1007F0004348406820F0F000A16808434049486041
:10080000207800F0010078B36068012806D13C48E8
:10081000006800F4003090B90120B8E76068022851
:1008200006D13748006800F0007040B90120AEE7FB
:100830003348006800F0020008B90120A7E73048FB
:10084000406820F00300616808432D494860FFF7C5
:10085000C1FE064609E0FFF7BDFE801B41F288316C
:10086000884202D9032092E707E02548406800F05B
:100870000C006168B0EB810FEDD12048006800F0FA
:100880000700A8420ED91D48006820F00700284341
:100890001A4908600846006800F00700A84201D025
:1008A000012074E7207800F00400042807D11448E0
:1008B000406820F4E060E16808431149486020780E
:1008C00000F00800082808D10D48406820F4605066
:1008D000216940EAC1000A49486000F03FF8084930
:1008E0004968C1F30311074A515CC84006490860D2
:1008F00006480068FFF794FE002048E70020024009
:10090000001002404A2B0008240000201C00002098
:1009100001480068704700002400002000B5FFF780
:10092000F7FF04494968C1F30221034A515CC840FA
:1009300000BD0000001002405A2B000800B5FFF770
:10094000E7FF04494968C1F3C221034A515CC8402A
:1009500000BD0000001002405A2B000870B50021B5
:100960000022002400230020134D696801F00C05CB
:10097000F5B1042D02D0082D19D101E00F4819E07E
:100980000F4DC1F38346AB5D01F4803555B10A4D7F
:100990006D68C5F340450B4E725D084D5D43B5FB78
:1009A000F2F402E0084D03FB05F4204602E000BF2C
:1009B000024800BF00BF70BD0010024000127A0064
:1009C000382B0008482B000800093D00F8B5044604
:1009D0000CB90120F8BD207800F00100002878D083
:1009E000F848406800F00C0004280CD0F548406836
:1009F00000F00C00082811D1F248406800F4803063
:100A0000B0F5803F0AD1EF48006800F400300028BC
:100A10005FD0606800285CD10120DBE700BF606820
:100A2000B0F5803F06D1E748006840F48030E549E2
:100A3000086028E0606858B9E248006820F4803017
:100A4000E04908600846006820F4802008601AE049
:100A50006068B0F5A02F0BD1DA48006840F4802020
:100A6000D84908600846006840F4803008600AE011
:100A7000D448006820F48030D249086008460068F5
:100A800020F48020086000BF606888B1FFF7A2FDF5
:100A9000054606E0FFF79EFD401B642801D90320B0
:100AA00098E7C848006800F400300028F2D010E051
:100AB000FFF790FD054606E0FFF78CFD401B64281C
:100AC00001D9032086E7BF48006800F40030002801
:100AD000F2D1207800F00200022857D1B9484068CE
:100AE00000F00C0050B1B748406800F00C00082836
:100AF00018D1B448406800F4803098B9B148006813
:100B000000F0020020B12069012801D0012061E736
:100B1000AC48006820F0F800616940EAC100A949CA
:100B2000086033E02069E8B10120A7490860FFF7B9
:100B300051FD054606E0FFF74DFD401B022801D997
:100B4000032047E79F48006800F002000028F2D029
:100B50009C48006820F0F800616940EAC1009949AA
:100B6000086013E0002098490860FFF733FD054650
:100B700006E0FFF72FFD401B022801D9032029E7DB
:100B80009048006800F002000028F2D1207800F0C0
:100B9000080008282DD1A069B8B101208B49086050
:100BA000FFF718FD054606E0FFF714FD401B02287D
:100BB00001D903200EE78348406A00F002000028B4
:100BC000F2D0012001F014FB13E000207F490860FF
:100BD000FFF700FD054606E0FFF7FCFC401B02287E
:100BE00001D90320F6E67748406A00F002000028A9
:100BF000F2D1207800F00400042873D10027714856
:100C0000C06900F0805070B900BF6E48C06940F004
:100C100080506C49C8610846C06900F0805000905F
:100C200000BF00BF01276A48006800F48070B0B9B7
:100C30006748006840F4807065490860FFF7CAFCA7
:100C4000054606E0FFF7C6FC401B642801D90320D7
:100C5000C0E65F48006800F480700028F2D000BF52
:100C6000E068012806D15748006A40F00100554964
:100C7000086227E0E06858B95248006A20F0010095
:100C8000504908620846006A20F00400086219E032
:100C9000E06805280BD14B48006A40F00400494940
:100CA00008620846006A40F0010008620AE0454810
:100CB000006A20F00100434908620846006A20F0FB
:100CC0000400086200BFE068A0B1FFF783FC05469E
:100CD00009E0FFF77FFC401B41F28831884202D9CE
:100CE000032077E622E03748006A00F0020000287F
:100CF000EFD012E0FFF76EFC054608E0FFF76AFC54
:100D0000401B41F28831884201D9032062E62D4818
:100D1000006A00F002000028F0D1012F05D1294817
:100D2000C06920F080502749C86100BFE069C8B39E
:100D30002448406800F00C00082860D0E0690228D0
:100D400048D1002020490866FFF744FC054606E02C
:100D5000FFF740FC401B022801D903203AE619485E
:100D6000006800F000700028F2D1206AB0F5803FE2
:100D700007D11448406820F40030A16808431149A5
:100D80004860D4E9080108430E49496821F4741108
:100D900008430C49486001200B490866FFF71AFC1C
:100DA000054607E03DE0FFF715FC401B022801D98E
:100DB00003200FE60348006800F000700028F2D01E
:100DC0002FE0000000100240000042428004424236
:100DD00000700040002014490866FFF7FBFB054641
:100DE00006E0FFF7F7FB401B022801D90320F1E5DD
:100DF0000E48006800F000700028F2D111E0E069B0
:100E0000012800D1E6E50948466806F48031206AE9
:100E1000814204D106F47011606A814201D0012040
:100E2000D8E50020D6E50000000042420010024054
:100E300070B504462546681EB0F1807F01D30120BD
:100E40000FE0681E4FF0E02148610F214FF0FF30A6
:100E500001F0E0FD00204FF0E021886107200861EB
:100E6000002070BD7047704730B502460B4600BF8A
:100E700092F83C00012801D1022030BD012082F807
:100E80003C0000BF022082F83D00106844681068F2
:100E9000816824F070041868044310684460104DA1
:100EA0001068A8420BD01068B0F1804F07D00D4DEC
:100EB0001068A84203D00C4D1068A84205D121F05B
:100EC00080015868014310688160012082F83D006C
:100ED00000BF002082F83C0000BF00BFCDE700004B
:100EE000002C0140000400400008004010B50446FA
:100EF0000CB9012010BD94F83D0028B9002084F8F9
:100F00003C00204600F026F8022084F83D00211D18
:100F1000206801F0CBF9012084F8460000BF84F876
:100F20003E0001213F20015540200155412001553F
:100F300000BF00BF012084F8420043200155442037
:100F400001554520015500BF012084F83D000020D7
:100F5000D0E7000010B586B0044600200290039050
:100F60000490059023492068884241D100BF22485F
:100F7000C06940F002002049C8610846C06900F01D
:100F80000200019000BF00BF00BF0846806940F02A
:100F9000040088610846806900F00400019000BFE9
:100FA00000BF00BF0846806940F00800886108461D
:100FB000806900F00800019000BF00BFC0200290CF
:100FC00000200390049002A90C48FFF76DF903205C
:100FD000029000200390049002A90948FFF764F9E9
:100FE000002211461D20FFF77BFB1D20FFF768FB49
:100FF00006B010BD0004004000100240000801408F
:10100000000C0140014691F83D00012801D001206B
:101010007047022081F83D000868C06840F0010078
:101020000B68D860124B086898420BD00868B0F182
:10103000804F07D00F4B0868984203D00E4B0868CA
:1010400098420CD10868806800F00702062A0CD08C
:101050000868006840F001000B68186005E0086847
:10106000006840F001000B6818600020D0E7000025
:10107000002C014000040040000800402DE9F04130
:1010800004460D46002700BF94F83C00012802D119
:101090000220BDE8F081012084F83C0000BF02205E
:1010A00084F83D002068866826F0770626F47F469F
:1010B000206886602868502833D00CDC202850D067
:1010C00004DC00284BD0102851D149E0302849D009
:1010D00040284CD139E060282DD0702807D0B0F5D9
:1010E000805F03D0B0F5005F41D10DE041E0D5E96C
:1010F00002136A68206801F02CF92068866846F0BF
:1011000077062068866034E0D5E902136A682068B3
:1011100001F01FF92068806840F4804021688860F1
:1011200027E0EA686968206801F0E4F95021206846
:1011300001F01AF91DE0EA686968206801F022FAF6
:101140006021206801F010F913E0EA6869682068FE
:1011500001F0D0F94021206801F006F909E000BF54
:1011600000BF00BF2968206801F0FEF801E00127F8
:1011700000BF00BF012084F83D0000BF002084F8BC
:101180003C0000BF384684E7017F012903D10021DC
:10119000804A116015E0017F022903D101217D4AB7
:1011A00011600EE0017F042903D10221794A116008
:1011B00007E0017F082903D10321764A116000E08E
:1011C00070477549884260D17449724A1268895CD7
:1011D00000295BD10121714A6E4B1B68D1546D49C6
:1011E000096831B1012917D0022928D003294CD12F
:1011F00038E000BF68490968096A21F00A01664AB7
:101200001268116264490968096A41F00201624A80
:101210001268116200BF38E000BF5F490968096ABF
:1012200021F0A0015C4A126811625B490968096AF1
:1012300041F02001584A1268116200BF25E000BF4A
:1012400055490968096A21F40071534A126811620C
:1012500051490968096A41F400714F4A12681162E4
:1012600000BF12E000BF4C490968096A21F400512F
:10127000494A1268116248490968096A41F40051F3
:10128000454A1268116200BF00BF80E00021434A56
:10129000404B1B68D1543F49096831B101293ED008
:1012A000022949D0032961D153E03D490968491C0D
:1012B0003B4A116011460968B1F5967F04D34FF49B
:1012C000FA71384A1268516335490968B1F5FA7FF5
:1012D00003D3C821334A1268516331490968B1F513
:1012E0002F7F03D364212F4A126851632C49096868
:1012F00040F22A32914205D30021294A1160294A3D
:101300001268516300BF0168096A21F00A0102688E
:1013100011620168096A0268116200BF26E000BF1D
:101320000168096A21F0A001026811620168096A76
:101330000268116200BF19E000BF0168096A21F468
:101340000071026811620168096A0268116200BFD7
:101350000CE000BF0168096A21F4005102681162C3
:101360000168096A0268116200BF00BF00BF00BFC8
:1013700009490968096A21F00A01074A12681162DD
:1013800005490968096A044A1268116200BF00BF72
:1013900016E7000010000020740000201400002058
:1013A000000000202C0000202DE9F04104460D46ED
:1013B0001646002700BF94F83C00012802D1022005
:1013C000BDE8F081012084F83C0000BF96B9EB68CD
:1013D000D5E90012206801F0A1F82068806920F0AA
:1013E0000C002168886120688069A9680843216829
:1013F000886141E0042E13D1EB68D5E90012206822
:1014000001F0D4F82068806920F440602168886188
:1014100020688069A96840EA0120216888612BE082
:10142000082E12D1EB68D5E90012206801F0DBF834
:101430002068C06920F00C002168C8612068C0697C
:10144000A96808432168C86116E00C2E13D1EB6827
:10145000D5E90012206801F0E2F82068C06920F4A4
:1014600040602168C8612068C069A96840EA01201D
:101470002168C86100E0012700BF002084F83C001B
:1014800000BF38469CE710B504460CB9012010BDDA
:1014900094F83D0028B9002084F83C00204600F074
:1014A00025F8022084F83D00211D206800F0FEFE92
:1014B000012084F8460000BF84F83E0001213F204F
:1014C0000155402001554120015500BF00BF0120BA
:1014D00084F8420043200155442001554520015520
:1014E00000BF012084F83D000020D0E770470000D5
:1014F0002DE9F04304460D46002615B994F83E0048
:101500000BE0042D02D13F20005D06E0082D02D142
:101510004020005D01E04120005D804615B994F84F
:1015200042000BE0042D02D14320005D06E0082DAF
:1015300002D14420005D01E04520005D8146B8F104
:10154000010F02D1B9F1010F02D00120BDE8F083F3
:101550001DB9022084F83E000EE0042D03D10221C3
:101560003F20015508E0082D03D1022140200155FC
:1015700002E00221412001551DB9022084F84200F9
:101580000EE0042D03D102214320015508E0082D6F
:1015900003D102214420015502E0022145200155DA
:1015A00035B1042D0BD0082D10D00C2D1CD114E01A
:1015B0002068C06840F002002168C86016E020681A
:1015C000C06840F004002168C8600FE02068C0686F
:1015D00040F008002168C86008E02068C06840F05A
:1015E00010002168C86001E0012600BF00BF06BBF3
:1015F00001222946206800F09BFE1249206888429B
:101600000BD02068B0F1804F07D00F492068884286
:1016100003D00E49206888420CD12068806800F011
:101620000707062F0CD02068006840F001002168F1
:10163000086005E02068006840F00100216808604B
:10164000304683E7002C01400004004000080040C1
:1016500070B504462068C5682068066906F0020077
:10166000022819D105F00200022815D1401F216877
:101670000861012020772068806900F0030018B11C
:101680002046FFF781FD05E0204600F0C1F8204626
:1016900000F094F90020207706F00400042819D106
:1016A00005F00400042815D1C04321680861022018
:1016B00020772068806900F4407018B12046FFF759
:1016C00063FD05E0204600F0A3F8204600F076F91F
:1016D0000020207706F00800082819D105F008003E
:1016E000082815D1C04321680861042020772068AC
:1016F000C06900F0030018B12046FFF745FD05E082
:10170000204600F085F8204600F058F900202077A8
:1017100006F01000102819D105F01000102815D17E
:10172000C04321680861082020772068C06900F460
:10173000407018B12046FFF727FD05E0204600F075
:1017400067F8204600F03AF90020207706F0010003
:1017500048B105F0010030B16FF001002168086167
:10176000204600F097F906F08000802809D105F0A6
:101770008000802805D1C043216808612046FFF71A
:1017800071FB06F04000402809D105F040004028D8
:1017900005D1C04321680861204600F083F906F0B6
:1017A0002000202809D105F02000202805D1C043C1
:1017B000216808612046FFF756FB70BD10B586B062
:1017C0000446002002900390049005902068B0F138
:1017D000804F16D100BF0C48806940F004000A49D0
:1017E00088610846806900F00400019000BF00BFD6
:1017F0000F20029002200390059002A90348FEF7F3
:1018000053FD06B010BD000000100240000801406A
:1018100070472DE9F04104460D461646002700BFEB
:1018200094F83C00012802D10220BDE8F08101209B
:1018300084F83C0000BF36B1042E1BD0082E31D0F6
:101840000C2E5ED145E02946206800F097FD206807
:10185000806940F00800216888612068806920F074
:10186000040021688861206880692969084321682B
:10187000886148E02946206800F0B0FD2068806952
:1018800040F40060216888612068806920F48060ED
:101890002168886120688069296940EA01202168FF
:1018A000886130E02946206800F0CCFD2068C069DE
:1018B00040F008002168C8612068C06920F0040079
:1018C0002168C8612068C069296908432168C86126
:1018D00019E02946206800F0E9FD2068C06940F45D
:1018E00000602168C8612068C06920F480602168B8
:1018F000C8612068C069296940EA01202168C8617F
:1019000001E0012700BF00BF00BF002084F83C00B9
:1019100000BF384689E710B504460CB9012010BD58
:1019200094F83D0028B9002084F83C00204600F0DF
:1019300025F8022084F83D00211D206800F0B6FC47
:10194000012084F8460000BF84F83E0001213F20BA
:101950000155402001554120015500BF00BF012025
:1019600084F842004320015544200155452001558B
:1019700000BF012084F83D000020D0E738B50446C0
:101980002068B0F1804F15D100BF0B48C06940F00E
:1019900001000949C8610846C06900F001000090D3
:1019A00000BF00BF002211461C20FEF799FE1C203C
:1019B000FEF786FE38BD00000010024070470000B0
:1019C00070B504460D4615B994F83E000BE0042DA1
:1019D00002D13F20005D06E0082D02D14020005DCD
:1019E00001E04120005D012801D0012070BD1DB93A
:1019F000022084F83E000EE0042D03D102213F2096
:101A0000015508E0082D03D102214020015502E0D4
:101A100002214120015501222946206800F088FC5E
:101A200019492068884201D1012000E0002028B136
:101A30002068406C40F400402168486412492068E6
:101A400088420BD02068B0F1804F07D00F49206842
:101A5000884203D00E49206888420CD120688068F3
:101A600000F00706062E0CD02068006840F0010048
:101A70002168086005E02068006840F001002168E6
:101A800008600020B2E70000002C01400004004084
:101A9000000800400249884200D100BF70470000A2
:101AA0007400002070477047704700002DE9F84F20
:101AB0000446206805682068C668206847694FF0BA
:101AC0000009CA4605F00F09B9F1000F0AD105F067
:101AD000200038B106F0200020B1204600F00DFEB5
:101AE000BDE8F88FB9F1000F7BD007F0010018B9FD
:101AF00006F49070002874D005F0010030B106F4AF
:101B0000807018B1606C40F00100606405F0040062
:101B100030B107F0010018B1606C40F00200606461
:101B200005F0020030B107F0010018B1606C40F020
:101B30000400606405F0080048B106F0200010B908
:101B400007F0010018B1606C40F008006064606C40
:101B5000002845D005F0200028B106F0200010B183
:101B6000204600F0CAFD20684069C0F3801A606C0E
:101B700000F0080010B9BAF1000F2CD0204600F098
:101B800076FD2068406900F0400000B300BF00BF50
:101B90002168143151E8001F21F040002168143100
:101BA00041E80002002AF3D100BFE06B50B1774852
:101BB000E16B4863E06BFEF70BFB88B1E06B416BB8
:101BC00088470DE02046FFF76FFF09E009E0204657
:101BD000FFF76AFF04E02046FFF766FF002060641D
:101BE0007EE7206B012877D105F01000002873D024
:101BF00006F010000028FAD000BF002000902068F6
:101C00000068009020684068009000BF00BF206816
:101C1000406900F0400000285FD0E06B0068406839
:101C20001FFA80F8B8F1000F55D0A08D404552DD65
:101C3000A4F82E80E06B8069202843D000BF00BF4D
:101C400021680C3151E8001F21F4807021680C31AB
:101C500041E80002002AF3D100BF00BF00BF2168A5
:101C6000143151E8001F21F001002168143141E8CE
:101C70000002002AF3D100BF00BF00BF2168143169
:101C800051E8001F21F040002168143141E80002B2
:101C9000002AF3D100BF202084F8420000202063F6
:101CA00000BF00BF21680C3151E8001F21F0100077
:101CB00021680C3141E80002002AF3D100BFE06B3B
:101CC000FEF75AFA02206063A08DE28D801A81B27D
:101CD0002046FFF7E8FE03E742E0A08DE18D401AC1
:101CE0001FFA80F8E08DD0B3B8F1000F37D000BFF5
:101CF00000BF21680C3151E8001F21F49070216869
:101D00000C3141E80002002AF3D100BF00BF00BF40
:101D10002168143151E8001F21F0010021681431BD
:101D200041E80002002AF3D100BF202084F84200DD
:101D30000020206300BF00BF21680C3151E8001F64
:101D400021F0100021680C3141E80002002AF3D193
:101D500000BF0220606341462046FFF7A4FEBFE6B5
:101D600005F0800030B106F0800018B1204600F088
:101D7000C1FDB5E605F0400030B106F0400018B1F5
:101D8000204600F0AAFCABE600BFA9E65B260008EF
:101D900010B504460CB9012010BDA06900B100E0E7
:101DA00000BF94F8410028B9002084F84000204684
:101DB00000F02AF8242084F841002068C06820F44C
:101DC00000502168C860204600F016FD20680069B8
:101DD00020F49040216808612068406920F02A00C2
:101DE000216848612068C06840F400502168C860DC
:101DF00000206064202084F8410084F84200002024
:101E0000606300BFC8E7000010B586B0044600203C
:101E100002900390049005901E492068884236D1B4
:101E200000BF1D48806940F480401B498861084616
:101E3000806900F48040019000BF00BF00BF0846E9
:101E4000806940F0040088610846806900F0040061
:101E5000019000BF00BF48150290022003900320AC
:101E6000059002A90D48FEF71FFA4FF4806002901A
:101E700000200390049002A90848FEF715FA0022FA
:101E800011462520FEF72CFC2520FEF719FC06B094
:101E900010BD000000380140001002400008014061
:101EA00070472DE9F84F04460E46174699464FF005
:101EB000000A94F84100202850D106B117B901203A
:101EC000BDE8F88F00206064212084F84100FEF70F
:101ED00081FB8246A784E784A068B0F5805F04D1C7
:101EE000206910B90025B04602E035464FF00008E1
:101EF0001EE05346002280212046CDF8009000F0DD
:101F000029FD20B1202084F841000320D8E745B9FD
:101F1000B8F80000C0F308002168486008F1020822
:101F200003E02878216848606D1CE08C401EE08446
:101F3000E08C0028DDD15346002240212046CDF818
:101F4000009000F007FD20B1202084F8410003201C
:101F5000B6E7202084F841000020B1E70220AFE777
:101F6000704700BFFEE7000000B585B0002001907B
:101F700002900390049000BF2548806940F0200043
:101F8000234988610846806900F02000009000BF66
:101F900000BF00BF0846806940F004008861084621
:101FA000806900F00400009000BF00BF00BF084639
:101FB000806940F0080088610846806900F00800E8
:101FC000009000BF00BF012278211248FEF7FCFA02
:101FD00000224FF4C0710F48FEF7F6FA7820019006
:101FE000012002900390049001A90A48FEF75CF9D1
:101FF0004FF4C07001900120029000200390022055
:10200000049001A90348FEF74FF905B000BD000098
:1020100000100240000C014000B589B0002007907C
:1020200008901C216846FEF784F84FF080402A494A
:10203000086040F2CF2048600021274881604FF4BB
:102040007A71C160002101618161FFF764FC08B110
:10205000FEF78FF800200790089007A91E48FEF7AA
:1020600003FF08B1FEF785F8602000900020019082
:1020700002900490002269461748FFF7CAFB08B196
:10208000FEF777F8042269461348FFF7C2FB08B150
:10209000FEF76FF8082269460F48FFF7BAFB08B150
:1020A000FEF767F80C2269460B48FFF7B2FB08B150
:1020B000FEF75FF800200849096848630649096887
:1020C000886305490968C8630349096808640248C8
:1020D000FFF774FB09B000BD2C00002000B58BB0E9
:1020E00000200790089009900A90059006900190B2
:1020F0000290039004902B482B49086047204860C9
:102100000021294881604FF6FF71C1600021016103
:1021100080218161FEF7EAFE08B1FEF72AF84FF44C
:102120008050079007A92048FEF7A8FF08B1FEF7E6
:1021300020F81D48FFF7A7F908B1FEF71AF80020AC
:102140000590069005A91848FEF78EFE08B1FEF727
:1021500010F80020019001200290002003900490CC
:10216000002201A91048FFF71FF908B1FEF701F896
:10217000042201A90C48FFF717F908B1FDF7F9FF90
:10218000082201A90848FFF70FF908B1FDF7F1FF90
:102190000C2201A90448FFF707F908B1FDF7E9FF90
:1021A0000BB000BD000400407400002010B50B48C7
:1021B0000B4908604FF4E130486000210848816015
:1021C000C16001610C21416100218161C161FFF7A2
:1021D000DFFD08B1FDF7CDFF10BD00000038014064
:1021E000BC00002000BFFEE700BFFEE77047000014
:1021F00008B508490968C9084FF47A72B1FBF2F1D1
:102200004143009100BF00BF00994A1E009200297F
:10221000F9D108BD24000020704710B5FEF7E0F9A1
:1022200010BD00B58FB0282105A8FDF782FF14214D
:102230006846FDF77EFF012005900004069000200F
:1022400007900120099002200C90C1030D914FF4DA
:10225000E0110E9105A8FEF7B9FB08B1FDF789FF63
:102260000F20009002200190002002904FF4806027
:1022700003900020049002216846FEF783FA08B11B
:10228000FDF777FF0FB000BD7047000010B50248A2
:10229000FFF7DEF910BD00002C00002010B5024849
:1022A000FFF7D6F910BD00007400002010B50268D9
:1022B0001C4B984208D0B0F1804F05D01A4B984281
:1022C00002D01A4B984203D122F070024B681A4395
:1022D000144B984208D0B0F1804F05D0124B984271
:1022E00002D0124B984203D122F44072CB681A43B9
:1022F00022F080034C6943EA040202608B68C362E7
:102300000B688362074B984201D10B690363012379
:102310004361036903F001031BB1036923F0010367
:10232000036110BD002C0140000400400008004083
:1023300030B501F01F05012404FA05F3046A9C433B
:102340000462046A01F01F0502FA05F52C430462D9
:1023500030BD30B50C46816821F47F4142EA032547
:1023600025432943816030BD0A46816821F0700110
:1023700042F00703194381607047000030B5026ADC
:10238000056A25F0010505624368846924F070043C
:1023900024F003040D682C4322F002028D682A43C6
:1023A0000D4DA84206D100BF22F00802CD682A4395
:1023B00022F00402084DA84207D123F4807323F4CD
:1023C00000734D692B438D692B43436084614D68D5
:1023D0004563026230BD0000002C014030B5026A46
:1023E000056A25F0100505624368846924F4E04419
:1023F00024F440740D6844EA052422F020028D681C
:1024000042EA05120E4DA84207D100BF22F0800219
:10241000CD6842EA051222F04002094DA84209D1D6
:1024200023F4806323F400634D6943EA85038D69D7
:1024300043EA8503436084614D688563026230BD71
:10244000002C014030B5026A056A25F480750562EA
:102450004368C46924F0700424F003040D682C431D
:1024600022F400728D6842EA05220F4DA84207D17E
:1024700000BF22F40062CD6842EA052222F48062A5
:10248000094DA84209D123F4805323F400534D6928
:1024900043EA05138D6943EA05134360C4614D683F
:1024A000C563026230BD0000002C014030B5036AF4
:1024B000056A25F4805505624468C26922F4E04249
:1024C00022F440720D6842EA052223F400538D681D
:1024D00043EA0533064DA84204D124F480444D69F3
:1024E00044EA85144460C2614D680564036230BDEE
:1024F000002C014030B50B461446026A056A25F0EF
:1025000001050562816921F0F00141EA041122F020
:102510000A021A438161026230BD000070B50C46A8
:102520001546026A066A26F0010606628169124EA5
:10253000B04208D0B0F1804F05D0104EB04202D06A
:102540000F4EB04201D1012600E000261EB121F05D
:102550000301294301E041F0010121F0F001F026DF
:1025600006EA0316314322F00A0204F00A06324357
:102570008161026270BD0000002C01400004004037
:102580000008004030B50B461446026A056A25F083
:1025900010050562816921F4704141EA043122F09D
:1025A000A00242EA03128161026230BD70B50C469E
:1025B0001546026A066A26F010060662816921F451
:1025C000407141EA052121F470414FF4704606EA5A
:1025D0000336314322F0A002A02606EA0416324355
:1025E0008161026270BD70B50C461546026A066ACA
:1025F00026F480760662C16921F00301294321F0A7
:10260000F001F02606EA0316314322F400724FF47B
:10261000007606EA04263243C161026270BD70B5DD
:102620000C461546026A066A26F480560662C1699F
:1026300021F4407141EA052121F470414FF47046C4
:1026400006EA0336314322F400524FF4005606EAFC
:1026500004363243C161026270BD70B505466C6AD2
:102660000020E085E0842046FFF71EFA70BD00BF21
:1026700000BF02680C3252E8002F22F49071026809
:102680000C3242E80013002BF3D100BF00BF00BFA3
:102690000268143252E8002F22F00101026814325D
:1026A00042E80013002BF3D100BF016B01290ED1CA
:1026B00000BF00BF02680C3252E8002F22F0100168
:1026C00002680C3242E80013002BF3D100BF202136
:1026D00080F8421000210163704710B5044620685D
:1026E000C06820F040002168C860202084F84100C4
:1026F0002046FFF735FC002010BDF8B5044694F8DD
:102700004200222875D1A068B0F5805F0CD1206905
:1027100050B90025A66A20684068C0F308003080E0
:10272000A06A801CA06215E0A56A0026A068B0F52A
:10273000805F03D0A06828B9206918B92068406874
:10274000287004E02068406800F07F002870A06ACC
:10275000401CA062E08D401E80B2E085002846D17A
:102760002068C06820F020002168C8602068C06828
:1027700020F480702168C8602068406920F0010062
:1027800021684861202084F8420000206063206BAB
:10279000012826D10020206300BF00BF21680C3132
:1027A00051E8001F21F0100021680C3141E80002BF
:1027B000002AF3D100BF2068006800F01000102844
:1027C0000AD100BF002000902068006800902068B7
:1027D0004068009000BF00BFA18D2046FFF763F95D
:1027E00002E02046FFF75CFB0020F8BD01E000207E
:1027F000FBE70220F9E7000070B50446216809698B
:1028000021F44051E2681143226811612269A168F4
:102810001143626941EA02052168C96841F20C620C
:10282000914329432268D1602168496921F44071AC
:10283000A2691143226851612D4A2168914202D157
:10284000FEF77CF801E0FEF769F800EBC00101EB50
:10285000001162689200B1FBF2F100EBC00202EBE2
:10286000001263689B00B2FBF3F26423B2FBF3F245
:1028700002EBC20303EB0212A1EB8201322202EB54
:1028800001116422B1FBF2F101F0F00100EBC00292
:1028900002EB001263689B00B2FBF3F26423B2FB0D
:1028A000F3F201EB021200EBC00101EB00116368CF
:1028B0009B00B1FBF3F100EBC00303EB0013666870
:1028C000B600B3FBF6F36426B3FBF6F303EBC306E3
:1028D00006EB0313A1EB8301322303EB0111642305
:1028E000B1FBF3F101F00F0111442268916070BD5A
:1028F00000380140014691F84100212828D188681C
:10290000B0F5805F0BD1086948B90A6A1088C0F336
:1029100008000B685860086A801C086205E00B6AB2
:10292000581C086218780B685860C88C401E80B22A
:10293000C88458B90868C06820F080000B68D86067
:102940000868C06840F040000B68D86000207047FD
:102950000220FCE72DE9F84304460D461746984649
:10296000089E31E0701C70B3FDF734FEA0EB080048
:10297000B04200D816B90320BDE8F8832068C068CB
:1029800000F00400F8B1802D1ED0402D1CD020682E
:102990000068C0F3C000B0B100BF00200090206804
:1029A0000068009020684068009000BF00BF20468B
:1029B000FFF75DFE0820606400BF002084F840003F
:1029C00000BF0120D8E7FFE7206800682840A84240
:1029D00001D1012000E00020B842C3D00020CBE7A5
:1029E00010B50248FFF762F810BD0000BC000020DF
:1029F00000BFFEE7014A024900F02FB87D2A000817
:102A00002800002002480068C0F302207047000040
:102A10000CED00E010B5002804DB0A07130E054A90
:102A2000135406E00A07140E034A00F00F031B1F9D
:102A3000D45410BD00E400E018ED00E002E008C846
:102A4000121F08C1002AFAD170477047002001E028
:102A500001C1121F002AFBD170472DE9F041164633
:102A60000F460446002503E03946B047641C6D1C40
:102A700020780028F8D12846BDE8F08113B50C462F
:102A80004FF6FF73012269460248FFF70AFA0098E1
:102A90001CBD0000BC000020FDF7AEFDFFF7C1FB30
:102AA000FFF762FAFFF7B8FAFFF780FBFFF716FBB4
:102AB0001A48FEF7A7FA00211848FEF719FD18A0DA
:102AC000FFF798FF00211A48FEF77AFF0421184803
:102AD000FEF776FF08211648FEF772FF0C21144816
:102AE000FEF76EFF40F6B830FDF7CAFB0020114933
:102AF00008604FF47A700E490968486300200C4959
:102B0000096888630A490968C8630949096808644B
:102B100003E04FF47A70FDF7B3FBFAE7740000208E
:102B20007379737465726D20696E6974210D0A0082
:102B30002C000020000000200203040506070809FD
:102B40000A0B0C0D0E0F1010010200000000000017
:102B5000000001020304060708090000000001024A
:102B600003040000842B0008000000202C0000005B
:102B70003C2A0008B02B00082C000020DC040000D8
:102B80004C2A0008000000000000000000000000C7
:102B90000000000000000000000000000000000035
:102BA000100000000100000000127A000000000088
:04000005080000ED02
:00000001FF
