:020000040800F2
:10000000680700200101000869310008252D00085B
:10001000653100085D080008F93C00080000000098
:1000200000000000000000000000000099310008FE
:10003000AD080008000000006D3100089B31000889
:100040001B0100081B0100081B0100081B01000820
:100050001B0100081B0100081B0100081B01000810
:100060001B0100081B0100081B0100081B01000800
:1000700061080008710800081B0100081B01000846
:100080001B0100081B0100081B0100081B010008E0
:100090001B0100081B0100081B0100081B010008D0
:1000A0001B0100080D3200081B0100081B0100089D
:1000B0001D3200082D3200081B0100081B0100083A
:1000C0001B0100081B0100081B0100081B010008A0
:1000D0001B010008ED3B00081B010008FD3B000868
:1000E000CD0800081B0100081B010008DFF80CD038
:1000F00000F024FB00480047854A000868070020FC
:100100000648804706480047FEE7FEE7FEE7FEE7B1
:10011000FEE7FEE7FEE7FEE7FEE7FEE7093200083E
:10012000ED000008202A04DB203A21FA02F0002129
:10013000704721FA02F3D040C2F1200291400843F7
:1001400019467047D2B201E000F8012B491EFBD2DC
:1001500070470022F6E710B513460A4604461946D2
:10016000FFF7F0FF204610BD80EA010210B502F053
:100170000043400022D04A001FD0010E01EB126163
:10018000C0F35600C2F3560240F4000042F40002ED
:10019000A0FB022000047F39140400D0401C50EA68
:1001A000124001D44000491EC2B20C0604EBD0102C
:1001B000401C4008802A02D003E0002010BD20F03F
:1001C0000100002900DA0020184310BD30B480EA95
:1001D000010202F0004530F0004221F0004013D04F
:1001E00090B1C30DD40DC2F31601C0F31600E41A8A
:1001F00041F4000140F400027D34914201D3641CBB
:1002000000E04900002C02DA30BC002070474FF4B7
:1002100000000023914201D3891A034340084FEAAA
:100220004101F7D151B1914202D14FF0004105E0B7
:1002300002D24FF0010101E06FF0010103EBC45065
:10024000284430BC00F08BB8C10F80EAE07008444D
:10025000CA079623002100F08BB89623002211468E
:1002600000F086B800F0004220F00040C10DC0F35D
:10027000160040F400007F2901DA0020704796291B
:1002800003DCC1F19601C84001E096398840002A9C
:10029000F4D04042704700F0004230F000400AD0F5
:1002A000C10D01F56071C0F3160042EA0151C208A8
:1002B000400711437047002001467047002801DBCA
:1002C000C0F10040002901DBC1F1004188427047C4
:1002D00030B50B46014600202022012409E021FA16
:1002E00002F59D4205D303FA02F5491B04FA02F513
:1002F0002844151EA2F10102F1DC30BD2DE9F05FAA
:100300000546002092469B46884606468146402484
:100310001BE02846414647462246FFF703FF534667
:100320005A46C01A914110D311461846224600F091
:1003300017FA2D1A67EB01084F46224601200021CB
:1003400000F00EFA17EB00094E41201EA4F1010443
:10035000DFDC484631462A464346BDE8F09F002987
:10036000A8BF7047401C490008BF20F0010070473B
:1003700010B4B0FA80FC00FA0CF050EA010404BF9B
:1003800010BC704749B1CCF1200421FA04F411FAF1
:100390000CF118BF012121430843A3EB0C01CB1D35
:1003A0004FEA00614FEA102042BF002010BC7047A6
:1003B00000EBC35010440029A4BF10BC7047401C80
:1003C000490008BF20F0010010BC70472DE9FE4F26
:1003D000804681EA0300C00F0C46009021F00041E6
:1003E00023F00045B8EB0200A94105D24046214662
:1003F00090461C460B46024623F00040104347D06F
:10040000270DC7F30A00C3F30A510290401A019066
:1004100040286BDAC3F3130040F4801B0098924627
:1004200020B10023D2EB030A63EB0B0B0198594672
:10043000C0F14002504600F093F906460D46504682
:100440005946019A00F09BF910EB08006141002425
:1004500087EA115284EAE7731A4340D0009A62B3E4
:10046000019A012A4FEA075215DC001B61EB0201D9
:100470004FF0004202EA0752CDE90042001C41F56C
:10048000801132462B4600F09BF903B0BDE8F08F97
:1004900040462146F9E7001B61EB0201001C41F5D3
:1004A000801300185B412018A2F5001747EB0301E9
:1004B00040EAD570B6196D4111E06D084FEA360675
:1004C00045EAC0754FEA0752001B61EB0201001CB0
:1004D00041F5801149084FEA300000195141324678
:1004E0002B4603B0BDE8F04F00F05BB90098012245
:1004F00040000023D0EB020263EBE073009821463A
:100500004FEAE074B8EB000061EB0401E9E783F027
:1005100000435BE781F0004158E72DE9FE4F81EA97
:10052000030404F0004421F0004100944FF0000B5C
:1005300023F0004350EA01045ED052EA03045BD08A
:10054000C3F30A54C1F30A552C44A4F2F3340194C2
:10055000A0FB0254C1F3130141F48011C3F3130350
:1005600043F4801301FB024400FB034E840A970A04
:1005700044EA815447EA8357A4FB076802958D0A31
:1005800005FB07854FEA932C04FB0C542705029DBD
:100590004FEA065847EA1637B5EB08056EEB070C2D
:1005A000870E920E47EA811742EA8312A7FB0201E7
:1005B000B6EB0B0164EB00042B0D43EA0C335E1821
:1005C00044EB1C50DA465146E7FB0201C5F3130425
:1005D0004FEA0B3343EA14534FEA0432019C43EAD7
:1005E0000603A4F10C040294009CCDE900B400F0D1
:1005F000E7F803B0BDE8F08F00200146F9E72DE9E8
:10060000F04D81EA030404F0004B21F0004514464C
:100610004FF0000A23F0004150EA050220D054EACE
:1006200001021DD0C5F30A570246C5F31303C1F3F7
:100630001300C1F30A5640F4801543F48013A7EB6E
:100640000608101BD64608F2FD3873EB050002D3EE
:1006500008F1010801E092185B41B8F1000F03DADC
:1006600000200146BDE8F08D00204FF480110646C1
:1006700084460EE0171B73EB050705D3121B63EBD3
:10068000050306434CEA010C49084FEA3000921872
:100690005B4150EA0107EDD152EA030012D082EA31
:1006A000040083EA0501084305D0101BAB4106D2C4
:1006B0000122002306E000224FF0004302E06FF029
:1006C000010253101AEB06004CEB085110EB0A0024
:1006D00041EB0B01BDE8F04D00F063B8C1F30A52E5
:1006E000C1F3130140F2FF3341F480119A4202DA60
:1006F00000200146704740F233439A42A2F233424F
:1007000002DC5242FFF70EBD00F02AB830B5041EDD
:1007100071F1000404DB4FF00044404264EB01013E
:10072000141E73F1000405DB1C464FF000435242D7
:1007300063EB0403994208BF904230BD064C074D5D
:1007400006E0E06840F0010394E8070098471034A1
:10075000AC42F6D3FFF7CEFCFC5300081C54000853
:10076000202A04DB203A00FA02F100207047914071
:10077000C2F1200320FA03F3194390407047202A66
:1007800006DBCB17203A41FA02F043EAE07306E0B9
:1007900041FA02F3D040C2F12002914008431946C9
:1007A000704710B5141E73F1000408DA401C41F1C3
:1007B000000192185B411A4301D120F0010010BDE5
:1007C0002DE9F04D92469B4611B1B1FA81F202E05B
:1007D000B0FA80F220329046FFF7C2FF04460F467F
:1007E00040EA0A0041EA0B0153465A46084313D037
:1007F000114653EA010019D0C8F140025046FFF7F4
:1008000091FC05460E46504659464246FFF7A8FF62
:10081000084305D0012004E020463946BDE8F08DAC
:100820000020054346EAE0762C4337430A986305E7
:10083000E40AA0EB08000022FD0A44EA47540A300B
:1008400002D500200146E9E7010510196941DDE9FB
:10085000084500196941BDE8F04DA2E700BFFEE779
:1008600010B5024800F0C2F810BD0000EC020020F4
:1008700010B5024800F0BAF810BD0000A802002030
:1008800030B590F840500124AC40C56B6C600468F2
:1008900063604468102C04D10468A2600468E160BD
:1008A00003E00468A1600468E26030BD70470000A6
:1008B0000021054A1268516200BF03490968496A6C
:1008C0008142FAD3704700004001002010B54FF478
:1008D000005000F045FA4FF4004000F041FA10BD1E
:1008E00072B600BFFEE70146002291F821000228FF
:1008F00008D00420886300BF002081F8200000BFDA
:10090000012070470868006820F00E000B6818602E
:100910000868006820F001000B68186091F840300A
:1009200001209840CB6B5860012081F8210000BF66
:10093000002081F8200000BF1046E2E770B50446B1
:10094000002594F82100022803D00420A06301258B
:1009500048E02068006820F00E00216808602068E8
:10096000006820F00100216808601F492068884263
:1009700001D1012026E01C4914312068884201D1B0
:1009800010201FE0184928312068884201D18015C5
:1009900018E015493C312068884201D1801411E0EB
:1009A000114950312068884202D14FF4803009E06B
:1009B0000D4964312068884202D14FF4801001E073
:1009C0004FF08070084908394860012084F8210000
:1009D00000BF002084F8200000BF606B10B12046EB
:1009E000616B8847284670BD0800024070B5044618
:1009F000E06B05682068066894F840100420884081
:100A00002840002846D006F00400002842D0206884
:100A1000006800F0200028B92068006820F0040079
:100A20002168086057492068884201D1042027E0E6
:100A3000544914312068884201D1402020E05149B6
:100A400028312068884201D1001519E04D493C3118
:100A50002068884202D14FF4804011E0494950316A
:100A60002068884202D14FF4802009E04549643172
:100A70002068884202D14FF4800001E04FF080608E
:100A8000404908394860E06A00287AD02046E16A87
:100A9000884776E094F84010022088402840A0B3B0
:100AA00006F0020088B32068006800F0200040B91A
:100AB0002068006820F00A0021680860012084F89E
:100AC000210030492068884201D1022028E02D49C8
:100AD00014312068884201D1202021E029492831A1
:100AE0002068884201D140151AE026493C3120682F
:100AF000884202D14FF4005012E022495031206860
:100B0000884203D14FF400300AE017E01D496431F8
:100B10002068884202D14FF4001001E04FF00070CD
:100B200018490839486000BF002084F8200000BF41
:100B3000A06A30B32046A16A884722E094F84010AA
:100B4000082088402840E0B106F00800C8B12068BD
:100B5000006820F00E002168086094F84010012021
:100B60008840E16B48600120A06384F8210000BF49
:100B7000002084F8200000BF206B10B12046216BBC
:100B8000884770BD080002400146002209B90120D3
:100B90007047164B0868C01A1423B0FBF3F08000AE
:100BA000086412480838C863022081F821000868E8
:100BB000026843F6F0708243D1E901031843CB6821
:100BC00018430B6918434B6918438B691843CB6969
:100BD000184302430868026000208863012081F8FE
:100BE0002100002081F8200000BFD1E7080002406A
:100BF0002DE9F04104460D4616461F464FF0000809
:100C000000BF94F82000012802D10220BDE8F08145
:100C1000012084F8200000BF94F8210001282CD185
:100C2000022084F821000020A0632068006820F0E2
:100C30000100216808603B46324629462046FFF7FE
:100C40001FFEE06A30B12068006840F00E002168A5
:100C500008600BE02068006820F00400216808604C
:100C60002068006840F00A00216808602068006879
:100C700040F001002168086006E000BF002084F811
:100C8000200000BF4FF002084046BFE770B50446A1
:100C900000F012FA06462546681C10B10448007898
:100CA000054400BF00F008FA801BA842FAD370BDCB
:100CB0003400002070B5054624480068466A244880
:100CC0000068301A0A2800D270BD21480660B5F5C8
:100CD000005F01D1002405E0B5F5004F01D10124EA
:100CE00000E0F1E70CB91B4900E01A490846294623
:100CF00000F0D4F901280ED1002017490968486294
:100D000004EB4401154A42F8210004EB440102EBD4
:100D10008101087218E010480068406A04EB440141
:100D20000E4A02EB8101486004EB4400114601EBDE
:100D30008000406846F2A811884205D2012004EBE9
:100D4000440102EB8101087200BFBDE7D001002021
:100D500020000020000C014040010020440300203E
:100D600010B5044604480068204020B102480460E1
:100D70002046FFF79FFF10BD140401402DE9F847FE
:100D80000346002294466EE14FF0010808FA02F48F
:100D9000D1F8008008EA0400A0427DD1DFF8DCA28F
:100DA000D1F80480A8EB0A09D0453AD014DCB8F198
:100DB000030F50D009DCB8F1000F31D0B8F1010FAA
:100DC0001CD0B8F1020F49D120E0B8F1110F18D0B2
:100DD000B8F1120F42D11EE0B9F5881F25D006DC0C
:100DE000B9F5803F20D0B9F5801F37D11AE0B9F5A9
:100DF000001F18D0B9F5041F30D117E0D1F80CC08E
:100E00002DE0D1F80C8008F1040C28E0D1F80C801A
:100E100008F1080C23E0D1F80C8008F10C0C1EE05E
:100E200000BF00BF00BF00BF00BF00BFD1F80880F7
:100E3000B8F1000F02D14FF0040C0BE0D1F808809C
:100E4000B8F1010F03D14FF0080C1C6102E04FF024
:100E5000080C5C6103E04FF0000C00E000BF00BF35
:100E6000FF2801D8984601E003F104084646FF2810
:100E700002D84FEA820803E0A2F108084FEA880886
:100E80004746D6F800804FF00F0909FA07F928EA1B
:100E900009080CFA07F900E088E048EA0908C6F8F2
:100EA0000080D1F8048008F08058B8F1805F7DD1CF
:100EB00000BFDFF8CC81D8F8188048F00108DFF8CF
:100EC000C091C9F81880C846D8F8188008F0010801
:100ED000CDF8008000BF00BF4FEAB9384FEA920951
:100EE00058F829504FEA82784FEA18794FF00F08E6
:100EF00008FA09F825EA0805DFF88881434502D198
:100F00004FF0000816E0DFF88081434502D14FF032
:100F100001080FE0DFF87481434502D14FF0020869
:100F200008E0DFF86C81434502D14FF0030801E08F
:100F30004FF004084FEA82794FEA197908FA09F864
:100F400048EA0505DFF84C814FEA920948F8295034
:100F5000D1F8048008F48018B8F5801F0AD1DFF8B2
:100F60003881D8F8008048EA0008DFF82C91C9F8E9
:100F7000008009E0DFF82081D8F8008028EA000826
:100F8000DFF81491C9F80080D1F8048008F4001843
:100F9000B8F5001F10D1DFF8008108F10408D8F877
:100FA000008048EA0008DFF8F09000E05AE009F11C
:100FB0000409C9F800800DE0DFF8DC8008F10408BE
:100FC000D8F8008028EA0008DFF8CC9009F104097D
:100FD000C9F80080D1F8048008F40038B8F5003F63
:100FE0000ED1DFF8B480A8F10408D8F8008048EAF0
:100FF0000008DFF8A490A9F10409C9F800800DE009
:10100000DFF89480A8F10408D8F8008028EA0008E6
:10101000DFF88490A9F10409C9F80080D1F80480B0
:1010200008F48038B8F5803F0ED1DFF86C80A8F165
:101030000808D8F8008048EA0008DFF85C90A9F1B9
:101040000809C9F800800DE0DFF84C80A8F1080815
:10105000D8F8008028EA0008DFF83C90A9F10809D8
:10106000C9F80080521CD1F8008028FA02F8B8F1C3
:10107000000F7FF489AEBDE8F88700000000111072
:101080000010024000080140000C01400010014027
:101090000014014008000140080401400246936822
:1010A0000B400BB1012000E0002070470AB1016144
:1010B00001E00B04036170470148006870470000BD
:1010C0002C000020034800680349097808440149BE
:1010D000086070472C0000203400002010B508483C
:1010E000006840F0100006490860032000F0A8F8EE
:1010F0000F2000F007F800F02BF8002010BD0000D2
:101100000020024070B504460E4800784FF47A7112
:10111000B1FBF0F00C490968B1FBF0F5284600F08E
:10112000F9FB08B1012070BD102C07D20022214626
:10113000501E00F047F80548046001E00120F2E786
:101140000020F0E7340000203800002030000020AC
:1011500008B500BF1148806940F001000F4988615F
:101160000846806900F00100009000BF00BF00BF8A
:101170000846C06940F08050C8610846C06900F068
:101180008050009000BF00BF00BF0549486820F0B4
:10119000E06040F00070486000BF08BD00100240F1
:1011A0000000014001460846002809DB00F01F034B
:1011B00001229A4043099B0003F1E023C3F8002178
:1011C00000BF70472DE9F05F80460D4616460027A8
:1011D00002F0A4FD074639462A46334601F00700CF
:1011E000C0F1070ABAF1040F02D94FF0040A01E076
:1011F000C0F1070AD14600F1040ABAF1070F02D282
:101200004FF0000A01E0A0F1030AD4464FF0010AB2
:101210000AFA09FAAAF1010A0AEA020A0AFA0CFA17
:101220004FF0010B0BFA0CFBABF1010B0BEA030BBC
:101230004AEA0B042146404602F078FDBDE8F09FE3
:1012400000BF00F00702064B19684FF6FF03194074
:10125000044B0B4343EA0221014B196000BF704766
:101260000CED00E00000FA0570B504460D460CB91F
:10127000012070BD5A48006800F00700A8420ED255
:101280005748006820F00700284355490860084681
:10129000006800F00700A84201D00120E9E72078AB
:1012A00000F0020002281DD1207800F0040004287C
:1012B00005D14C48406840F4E0604A4948602078D5
:1012C00000F00800082805D14648406840F4605006
:1012D000444948604348406820F0F000A168084352
:1012E00040494860207800F0010078B36068012828
:1012F00006D13C48006800F4003090B90120B8E7FE
:101300006068022806D13748006800F0007040B9D4
:101310000120AEE73348006800F0020008B9012060
:10132000A7E73048406820F00300616808432D4972
:101330004860FFF7C1FE064609E0FFF7BDFE801BCF
:1013400041F28831884202D9032092E707E025481C
:10135000406800F00C006168B0EB810FEDD12048CF
:10136000006800F00700A8420ED91D48006820F070
:10137000070028431A4908600846006800F0070083
:10138000A84201D0012074E7207800F0040004286E
:1013900007D11448406820F4E060E168084311492F
:1013A0004860207800F00800082808D10D484068FF
:1013B00020F46050216940EAC1000A49486000F009
:1013C0003FF808494968C1F30311074A515CC84016
:1013D0000649086006480068FFF794FE002048E7C9
:1013E0000020024000100240E453000838000020B2
:1013F00030000020014800687047000038000020DD
:1014000000B5FFF7F7FF04494968C1F30221034A19
:10141000515CC84000BD000000100240F4530008B9
:1014200000B5FFF7E7FF04494968C1F3C221034A49
:10143000515CC84000BD000000100240F453000899
:1014400070B500210022002400230020134D69689C
:1014500001F00C05F5B1042D02D0082D19D101E0E1
:101460000F4819E00F4DC1F38346AB5D01F48035A1
:1014700055B10A4D6D68C5F340450B4E725D084D80
:101480005D43B5FBF2F402E0084D03FB05F4204692
:1014900002E000BF024800BF00BF70BD0010024064
:1014A00000127A00D2530008E253000800093D0000
:1014B000F8B504460CB90120F8BD207800F0010011
:1014C000002878D0F848406800F00C0004280CD0C0
:1014D000F548406800F00C00082811D1F248406837
:1014E00000F48030B0F5803F0AD1EF48006800F486
:1014F000003000285FD0606800285CD10120DBE765
:1015000000BF6068B0F5803F06D1E748006840F44E
:101510008030E549086028E0606858B9E248006812
:1015200020F48030E04908600846006820F48020FC
:1015300008601AE06068B0F5A02F0BD1DA480068A7
:1015400040F48020D84908600846006840F48030A4
:1015500008600AE0D448006820F48030D24908606E
:101560000846006820F48020086000BF606888B1E9
:10157000FFF7A2FD054606E0FFF79EFD401B64282D
:1015800001D9032098E7C848006800F4003000281B
:10159000F2D010E0FFF790FD054606E0FFF78CFD66
:1015A000401B642801D9032086E7BF48006800F487
:1015B00000300028F2D1207800F00200022857D134
:1015C000B948406800F00C0050B1B748406800F0DE
:1015D0000C00082818D1B448406800F4803098B94D
:1015E000B148006800F0020020B12069012801D054
:1015F000012061E7AC48006820F0F800616940EA2A
:10160000C100A949086033E02069E8B10120A74979
:101610000860FFF751FD054606E0FFF74DFD401B52
:10162000022801D9032047E79F48006800F0020024
:101630000028F2D09C48006820F0F800616940EA78
:10164000C1009949086013E0002098490860FFF73D
:1016500033FD054606E0FFF72FFD401B022801D9A8
:10166000032029E79048006800F002000028F2D12A
:10167000207800F0080008282DD1A069B8B1012019
:101680008B490860FFF718FD054606E0FFF714FDDB
:10169000401B022801D903200EE78348406A00F06E
:1016A00002000028F2D0012001F062FD13E00020CA
:1016B0007F490860FFF700FD054606E0FFF7FCFCE8
:1016C000401B022801D90320F6E67748406A00F063
:1016D00002000028F2D1207800F00400042873D121
:1016E00000277148C06900F0805070B900BF6E4893
:1016F000C06940F080506C49C8610846C06900F07C
:101700008050009000BF00BF01276A48006800F4C5
:101710008070B0B96748006840F48070654908601F
:10172000FFF7CAFC054606E0FFF7C6FC401B64282D
:1017300001D90320C0E65F48006800F480700028EB
:10174000F2D000BFE068012806D15748006A40F097
:1017500001005549086227E0E06858B95248006A1C
:1017600020F00100504908620846006A20F0040099
:10177000086219E0E06805280BD14B48006A40F088
:101780000400494908620846006A40F00100086206
:101790000AE04548006A20F0010043490862084613
:1017A000006A20F00400086200BFE068A0B1FFF703
:1017B00083FC054609E0FFF77FFC401B41F28831BE
:1017C000884202D9032077E622E03748006A00F019
:1017D00002000028EFD012E0FFF76EFC054608E09B
:1017E000FFF76AFC401B41F28831884201D903208F
:1017F00062E62D48006A00F002000028F0D1012FB7
:1018000005D12948C06920F080502749C86100BF30
:10181000E069C8B32448406800F00C00082860D094
:10182000E069022848D1002020490866FFF744FCFF
:10183000054606E0FFF740FC401B022801D90320C3
:101840003AE61948006800F000700028F2D1206ADA
:10185000B0F5803F07D11448406820F40030A168FB
:10186000084311494860D4E9080108430E49496812
:1018700021F4741108430C49486001200B490866A3
:10188000FFF71AFC054607E03DE0FFF715FC401B9B
:10189000022801D903200FE60348006800F0007019
:1018A0000028F2D02FE00000001002400000424269
:1018B0008004424200700040002014490866FFF78F
:1018C000FBFB054606E0FFF7F7FB401B022801D9AA
:1018D0000320F1E50E48006800F000700028F2D106
:1018E00011E0E069012800D1E6E50948466806F400
:1018F0008031206A814204D106F47011606A81420D
:1019000001D00120D8E50020D6E5000000004242C9
:101910000010024070B504462546681EB0F1807F75
:1019200001D301200FE0681E4FF0E02148610F2134
:101930004FF0FF3002F0FAF900204FF0E02188610B
:1019400007200861002070BD7047704730B502461F
:101950000B4600BF92F83C00012801D1022030BDA7
:10196000012082F83C0000BF022082F83D00106890
:1019700044681068816824F0700418680443106893
:101980004460104D1068A8420BD01068B0F1804F31
:1019900007D00D4D1068A84203D00C4D1068A84226
:1019A00005D121F080015868014310688160012051
:1019B00082F83D0000BF002082F83C0000BF00BF5D
:1019C000CDE70000002C014000040040000800406A
:1019D00010B504460CB9012010BD94F83D0028B99B
:1019E000002084F83C00204600F026F8022084F80D
:1019F0003D00211D206801F021FC012084F84600F3
:101A000000BF84F83E0001213F20015540200155D0
:101A10004120015500BF00BF012084F8420043204F
:101A20000155442001554520015500BF012084F88F
:101A30003D000020D0E7000010B586B0044600202D
:101A400002900390049005903E492068884216D188
:101A500000BF3D48806940F400603B49886108460A
:101A6000806900F40060019000BF00BF00221146B1
:101A70001920FFF7A7FB1920FFF794FB60E020680F
:101A8000B0F1804F16D100BF2F48C06940F001006F
:101A90002D49C8610846C06900F00100019000BFEF
:101AA00000BF002211461C20FFF78CFB1C20FFF713
:101AB00079FB45E025492068884241D100BF224892
:101AC000C06940F002002049C8610846C06900F0C2
:101AD0000200019000BF00BF00BF0846806940F0CF
:101AE000040088610846806900F00400019000BF8E
:101AF00000BF00BF0846806940F0080088610846C2
:101B0000806900F00800019000BF00BFC020029073
:101B100000200390049002A90D48FFF72FF903203D
:101B2000029000200390049002A90A48FFF726F9CA
:101B3000002211461D20FFF745FB1D20FFF732FB59
:101B400006B010BD002C014000100240000400400F
:101B500000080140000C0140014691F83D000128B9
:101B600001D001207047022081F83D000868C0685C
:101B700040F001000B68D860124B086898420BD007
:101B80000868B0F1804F07D00F4B0868984203D027
:101B90000E4B086898420CD10868806800F0070274
:101BA000062A0CD00868006840F001000B68186035
:101BB00005E00868006840F001000B68186000202C
:101BC000D0E70000002C0140000400400008004065
:101BD0002DE9F04104460D46002700BF94F83C0073
:101BE000012802D10220BDE8F081012084F83C00E8
:101BF00000BF022084F83D002068866826F0770642
:101C000026F47F46206886602868502833D00CDC94
:101C1000202850D004DC00284BD0102851D149E0B6
:101C2000302849D040284CD139E060282DD0702888
:101C300007D0B0F5805F03D0B0F5005F41D10DE073
:101C400041E0D5E902136A68206801F04AFB206888
:101C5000866846F077062068866034E0D5E902138E
:101C60006A68206801F03DFB2068806840F480408D
:101C70002168886027E0EA686968206801F002FC52
:101C80005021206801F038FB1DE0EA68696820688F
:101C900001F040FC6021206801F02EFB13E0EA68AF
:101CA0006968206801F0EEFB4021206801F024FB08
:101CB00009E000BF00BF00BF2968206801F01CFBDD
:101CC00001E0012700BF00BF012084F83D0000BFF4
:101CD000002084F83C0000BF384684E7017F0129DA
:101CE00003D100216C4A116015E0017F022903D164
:101CF0000121694A11600EE0017F042903D102210C
:101D0000654A116007E0017F082903D10321624A77
:101D1000116000E070476149884260D160495E4AC5
:101D20001268895C00295BD101215D4A5A4B1B680E
:101D3000D1545949096831B1012917D0022928D055
:101D400003294CD138E000BF54490968096A21F0E1
:101D50000A01524A1268116250490968096A41F041
:101D600002014E4A1268116200BF38E000BF4B49C1
:101D70000968096A21F0A001484A126811624749BE
:101D80000968096A41F02001444A1268116200BFE3
:101D900025E000BF41490968096A21F400713F4A02
:101DA000126811623D490968096A41F400713B4AB1
:101DB0001268116200BF12E000BF38490968096A61
:101DC00021F40051354A1268116234490968096AE0
:101DD00041F40051314A1268116200BF00BF58E05F
:101DE00000212F4A2C4B1B68D1542B49096831B173
:101DF000012916D0022921D0032939D12BE0294904
:101E00000968491C274A116000BF0168096A21F06E
:101E10000A01026811620168096A0268116200BF62
:101E200026E000BF0168096A21F0A0010268116282
:101E30000168096A0268116200BF19E000BF016809
:101E4000096A21F40071026811620168096A026876
:101E5000116200BF0CE000BF0168096A21F4005163
:101E6000026811620168096A0268116200BF00BF5E
:101E700000BF00BF09490968096A21F00A01074A41
:101E80001268116205490968096A044A12681162F8
:101E900000BF00BF3EE7000014000020D00100207A
:101EA00018000020040000202DE9F04104460D46F2
:101EB0001646002700BF94F83C00012802D10220FA
:101EC000BDE8F081012084F83C0000BF96B9EB68C2
:101ED000D5E90012206801F0E9FA2068806920F055
:101EE0000C002168886120688069A968084321681E
:101EF000886141E0042E13D1EB68D5E90012206817
:101F000001F01CFB2068806920F440602168886132
:101F100020688069A96840EA0120216888612BE077
:101F2000082E12D1EB68D5E90012206801F023FBDE
:101F30002068C06920F00C002168C8612068C06971
:101F4000A96808432168C86116E00C2E13D1EB681C
:101F5000D5E90012206801F02AFB2068C06920F44E
:101F600040602168C8612068C069A96840EA012012
:101F70002168C86100E0012700BF002084F83C0010
:101F800000BF38469CE710B504460CB9012010BDCF
:101F900094F83D0028B9002084F83C00204600F069
:101FA00025F8022084F83D00211D206801F046F943
:101FB000012084F8460000BF84F83E0001213F2044
:101FC0000155402001554120015500BF00BF0120AF
:101FD00084F8420043200155442001554520015515
:101FE00000BF012084F83D000020D0E770470000CA
:101FF0002DE9F04304460D46002615B994F83E003D
:102000000BE0042D02D13F20005D06E0082D02D137
:102010004020005D01E04120005D804615B994F844
:1020200042000BE0042D02D14320005D06E0082DA4
:1020300002D14420005D01E04520005D8146B8F1F9
:10204000010F02D1B9F1010F02D00120BDE8F083E8
:102050001DB9022084F83E000EE0042D03D10221B8
:102060003F20015508E0082D03D1022140200155F1
:1020700002E00221412001551DB9022084F84200EE
:102080000EE0042D03D102214320015508E0082D64
:1020900003D102214420015502E0022145200155CF
:1020A00035B1042D0BD0082D10D00C2D1CD114E00F
:1020B0002068C06840F002002168C86016E020680F
:1020C000C06840F004002168C8600FE02068C06864
:1020D00040F008002168C86008E02068C06840F04F
:1020E00010002168C86001E0012600BF00BF06BBE8
:1020F00001222946206801F0E3F81249206888424D
:102100000BD02068B0F1804F07D00F49206888427B
:1021100003D00E49206888420CD12068806800F006
:102120000707062F0CD02068006840F001002168E6
:10213000086005E02068006840F001002168086040
:10214000304683E7002C01400004004000080040B6
:1021500070B504462068C5682068066906F002006C
:10216000022819D105F00200022815D1401F21686C
:102170000861012020772068806900F0030018B111
:102180002046FFF7ABFD05E0204600F0C1F82046F1
:1021900000F075F90020207706F00400042819D11A
:1021A00005F00400042815D1C0432168086102200D
:1021B00020772068806900F4407018B12046FFF74E
:1021C0008DFD05E0204600F0A3F8204600F057F909
:1021D0000020207706F00800082819D105F0080033
:1021E000082815D1C04321680861042020772068A1
:1021F000C06900F0030018B12046FFF76FFD05E04D
:10220000204600F085F8204600F039F900202077BC
:1022100006F01000102819D105F01000102815D173
:10222000C04321680861082020772068C06900F455
:10223000407018B12046FFF751FD05E0204600F040
:1022400067F8204600F01BF90020207706F0010017
:1022500048B105F0010030B16FF00100216808615C
:10226000204600F077F906F08000802809D105F0BB
:102270008000802805D1C043216808612046FFF70F
:1022800063FB06F04000402809D105F040004028DB
:1022900005D1C04321680861204600F063F906F0CB
:1022A0002000202809D105F02000202805D1C043B6
:1022B000216808612046FFF748FB70BD10B586B065
:1022C0000446002002900390049005902068B0F12D
:1022D000804F16D100BF0C48806940F004000A49C5
:1022E00088610846806900F00400019000BF00BFCB
:1022F0000F20029002200390059002A90348FEF7E8
:102300003DFD06B010BD0000001002400008014075
:1023100070472DE9F04104460D461646002700BFE0
:1023200094F83C00012802D10220BDE8F081012090
:1023300084F83C0000BF36B1042E1BD0082E31D0EB
:102340000C2E5ED145E02946206800F0DFFF2068B2
:10235000806940F00800216888612068806920F069
:102360000400216888612068806929690843216820
:10237000886148E02946206800F0F8FF20688069FD
:1023800040F40060216888612068806920F48060E2
:102390002168886120688069296940EA01202168F4
:1023A000886130E02946206801F014F82068C0698F
:1023B00040F008002168C8612068C06920F004006E
:1023C0002168C8612068C069296908432168C8611B
:1023D00019E02946206801F031F82068C06940F40E
:1023E00000602168C8612068C06920F480602168AD
:1023F000C8612068C069296940EA01202168C86174
:1024000001E0012700BF00BF00BF002084F83C00AE
:1024100000BF384689E710B504460CB9012010BD4D
:1024200094F83D0028B9002084F83C00204600F0D4
:1024300025F8022084F83D00211D206800F0FEFEF2
:10244000012084F8460000BF84F83E0001213F20AF
:102450000155402001554120015500BF00BF01201A
:1024600084F8420043200155442001554520015580
:1024700000BF012084F83D000020D0E7704770477E
:1024800070B504460D4615B994F83E000BE0042DD6
:1024900002D13F20005D06E0082D02D14020005D02
:1024A00001E04120005D012801D0012070BD1DB96F
:1024B000022084F83E000EE0042D03D102213F20CB
:1024C000015508E0082D03D102214020015502E00A
:1024D00002214120015501222946206800F0F0FE2A
:1024E00019492068884201D1012000E0002028B16C
:1024F0002068406C40F4004021684864124920681C
:1025000088420BD02068B0F1804F07D00F49206877
:10251000884203D00E49206888420CD12068806828
:1025200000F00706062E0CD02068006840F001007D
:102530002168086005E02068006840F0010021681B
:1025400008600020B2E70000002C014000040040B9
:10255000000800400249884200D100BF70470000D7
:10256000D00100207047704770B5044600252068F0
:102570004069C0F3C01594F84100212817D1B5B1C6
:1025800000BF00BF2168143151E8001F21F0800016
:102590002168143141E80002002AF3D100BFA06B8A
:1025A00010B1A06BFEF79FF9204601F035F92068C5
:1025B0004069C0F3801594F84200222817D1B5B1C4
:1025C00000BF00BF2168143151E8001F21F0400016
:1025D0002168143141E80002002AF3D100BFE06B0A
:1025E00010B1E06BFEF77FF9204601F0CFF8002034
:1025F00070BD70472DE9F84F0446206805682068D3
:10260000C668206847694FF00009CA4605F00F09FF
:10261000B9F1000F0AD105F0200038B106F0200012
:1026200020B1204601F00BF9BDE8F88FB9F1000F99
:102630007BD007F0010018B906F49070002874D020
:1026400005F0010030B106F4807018B1606C40F004
:102650000100606405F0040030B107F0010018B11A
:10266000606C40F00200606405F0020030B107F0D9
:10267000010018B1606C40F00400606405F00800CF
:1026800048B106F0200010B907F0010018B1606CE5
:1026900040F008006064606C002845D005F0200020
:1026A00028B106F0200010B1204601F0C8F82068DB
:1026B0004069C0F3801A606C00F0080010B9BAF1EC
:1026C000000F2CD0204601F061F82068406900F02E
:1026D000400000B300BF00BF2168143151E8001F63
:1026E00021F040002168143141E80002002AF3D1B2
:1026F00000BFE06B50B17748E16B4863E06BFEF7D9
:102700001DF988B1E06B416B88470DE02046FFF76B
:1027100070FF09E009E02046FFF76BFF04E0204668
:10272000FFF767FF002060647EE7206B012877D108
:1027300005F01000002873D006F010000028FAD031
:1027400000BF00200090206800680090206840686A
:10275000009000BF00BF2068406900F040000028E2
:102760005FD0E06B006840681FFA80F8B8F1000F96
:1027700055D0A08D404552DDA4F82E80E06B8069D5
:10278000202843D000BF00BF21680C3151E8001F52
:1027900021F4807021680C3141E80002002AF3D155
:1027A00000BF00BF00BF2168143151E8001F21F0B5
:1027B00001002168143141E80002002AF3D100BF72
:1027C00000BF00BF2168143151E8001F21F0400014
:1027D0002168143141E80002002AF3D100BF202013
:1027E00084F842000020206300BF00BF21680C3144
:1027F00051E8001F21F0100021680C3141E800026F
:10280000002AF3D100BFE06BFEF76DF80220606391
:10281000A08DE28D801A81B22046FFF7A4FE03E767
:1028200042E0A08DE18D401A1FFA80F8E08DD0B310
:10283000B8F1000F37D000BF00BF21680C3151E85C
:10284000001F21F4907021680C3141E80002002A39
:10285000F3D100BF00BF00BF2168143151E8001F51
:1028600021F001002168143141E80002002AF3D16F
:1028700000BF202084F842000020206300BF00BF7A
:1028800021680C3151E8001F21F0100021680C3143
:1028900041E80002002AF3D100BF022060634146F4
:1028A0002046FFF760FEBFE605F0800030B106F07D
:1028B000800018B1204601F023F9B5E605F040008C
:1028C00030B106F0400018B1204600F095FFABE6AD
:1028D00000BFA9E6EB35000810B504460CB901208D
:1028E00010BDA06900B100E000BF94F8410028B914
:1028F000002084F84000204600F02AF8242084F8C4
:1029000041002068C06820F400502168C86020465B
:1029100001F014F82068006920F4904021680861F3
:102920002068406920F02A00216848612068C0685A
:1029300040F400502168C86000206064202084F8C2
:10294000410084F842000020606300BFC8E7000037
:1029500010B586B0044600200290039004900590C4
:1029600055492068884237D100BF5448806940F4F7
:102970008040524988610846806900F48040019097
:1029800000BF00BF00BF0846806940F004008861B6
:102990000846806900F00400019000BF00BF4815A0
:1029A0000290022003900320059002A94448FEF7FC
:1029B000E5F94FF48060029000200390049002A992
:1029C0003F48FEF7DBF9002211462520FEF7FAFB0F
:1029D0002520FEF7E7FB6DE03A492068884269D17F
:1029E00000BF3648C06940F480203449C8610846B9
:1029F000C06900F48020019000BF00BF00BF0846FE
:102A0000806940F0080088610846806900F008008D
:102A1000019000BF00BF0815029002200390032020
:102A2000059002A92848FEF7A9F94FF4006002902A
:102A300000200390049002A92348FEF79FF9234841
:102A400023490860002048600021214881608021DE
:102A5000C1600021016141618161C161FEF794F8AB
:102A600008B1FDF73DFF00BF1948E063446200BFB5
:102A7000164814381749086010204860002115488E
:102A800081608021C1600021016141618161C1617A
:102A9000FEF77AF808B1FDF723FF00BF0D48A063E9
:102AA000446200BF002211462720FEF78BFB27203F
:102AB000FEF778FB06B010BD003801400010024060
:102AC0000008014000480040000C01403000024076
:102AD000A8020020EC02002070B504460D46164600
:102AE00094F8420020280BD105B10EB9012070BD29
:102AF0000020206332462946204600F09DFFF6E77D
:102B00000220F4E7704770472DE9F84F04460E465F
:102B1000174699464FF0000A94F84100202850D1FA
:102B200006B117B90120BDE8F88F002060642120AC
:102B300084F84100FEF7C0FA8246A784E784A068C3
:102B4000B0F5805F04D1206910B90025B04602E0DD
:102B500035464FF000081EE05346002280212046F3
:102B6000CDF8009000F0FCFF20B1202084F8410057
:102B70000320D8E745B9B8F80000C0F30800216881
:102B8000486008F1020803E02878216848606D1C5D
:102B9000E08C401EE084E08C0028DDD1534600220A
:102BA00040212046CDF8009000F0DAFF20B120202F
:102BB00084F841000320B6E7202084F8410000207B
:102BC000B1E70220AFE70000F7B50446154694F8D8
:102BD0004100202836D1019800B10DB90120FEBD79
:102BE00001982062A584E58400206064212084F897
:102BF00041001548A16B88621448A16BC862144853
:102C0000A16B08630020A16B486301AE23681A1D05
:102C100031682B46A06BFDF7EBFF6FF04000216899
:102C2000086000BF00BF2168143151E8001F41F067
:102C300080002168143141E80002002AF3D100BF6E
:102C40000020CCE70220CAE7273700087F370008BA
:102C5000FF350008704770472DE9F047044600260D
:102C6000002509E06D1CB5F57A7F02D91548BDE84D
:102C7000F0870120FEF70AF804EB4400124901EB4B
:102C80008000007A0028EDD004EB44010E4A02EBEC
:102C90008101496804EB44020B4B53F82220881A47
:102CA000FDF7DBFA81460949FDF75EFA80464FF0F1
:102CB0008041FDF78BFA07460549FDF787FA06467E
:102CC0003046D4E7000080BF4403002000000842E3
:102CD00000007A4410B50020FFF7BEFF10BD0000D1
:102CE00070B5064616B90D4CA51402E00B4C4FF416
:102CF0008045002006EB4601094A02EB810108727B
:102D0000012229462046FEF7D1F90A20FDF7D0FD21
:102D1000002229462046FEF7C9F970BD000C01408B
:102D20004403002000BFFEE710B50748007A08B949
:102D3000012010BD044908680449FDF7BFFA01D21B
:102D40000120F6E70020F4E75C0300200000A0412A
:102D500008B500BF0E48406940F001000C494861C9
:102D60000846406900F00100009000BF00BF00224B
:102D700011460C20FEF726FA0C20FEF713FA00226B
:102D800011460D20FEF71EFA0D20FEF70BFA08BDC6
:102D90000010024000B585B0002001900290039021
:102DA000049000BF4348806940F020004149886199
:102DB0000846806900F02000009000BF00BF00BFFF
:102DC0000846806940F0040088610846806900F088
:102DD0000400009000BF00BF00BF0846806940F0BB
:102DE000080088610846806900F00800009000BF74
:102DF00000BF00224FF4A3412F48FEF757F90022ED
:102E00004FF480712D48FEF751F9012278212A48AC
:102E1000FEF74CF94FF4A0400190012002900220EF
:102E20000390049001A92448FDF7A8FF4FF4005037
:102E30000190234802900220039001A91E48FDF74B
:102E40009DFF4FF4004001901E4802900220039025
:102E500001A91948FDF792FF4FF4807001900120FD
:102E60000290002003900220049001A91348FDF76E
:102E700085FF78200190012002900390049001A921
:102E80000D48FDF77BFF4FF4C070019001200290C8
:102E9000002003900220049001A90748FDF76EFF6F
:102EA000002211462820FEF78DF92820FEF77AF936
:102EB00005B000BD00100240000C014000080140B8
:102EC000000031100000111000B587B00020039001
:102ED00004900590069001900290154815490860ED
:102EE000472048600021134881604FF6FF71C160A0
:102EF0000021016141618161FEF76AFD08B1FDF7C2
:102F0000EFFC4FF48050039003A90A48FEF760FEDF
:102F100008B1FDF7E5FC00200190029001A90548E9
:102F2000FEF714FD08B1FDF7DBFC07B000BD0000A3
:102F3000002C01404001002000B58DB00020099018
:102F40000A900B900C90079008901C216846FDF7A2
:102F500000F94FF080403249086040F2CF204860CD
:102F600000212F4881604FF47A71C1600021016116
:102F70008161FEF72DFD08B1FDF7B2FC4FF48050E2
:102F8000099009A92648FEF723FE08B1FDF7A8FC21
:102F90002348FFF740FA08B1FDF7A2FC0020079094
:102FA000089007A91E48FEF7D1FC08B1FDF798FC70
:102FB0006020009000200190029004900022694659
:102FC0001748FFF7A6F908B1FDF78AFC0422694605
:102FD0001348FFF79EF908B1FDF782FC0822694605
:102FE0000F48FFF796F908B1FDF77AFC0C22694605
:102FF0000B48FFF78EF908B1FDF772FC0020084975
:103000000968486306490968886305490968C8630F
:103010000349096808640248FFF750F90DB000BD84
:103020008801002000B58BB000200790089009901F
:103030000A900590069001900290039004902B480E
:103040002B490860472048600021294881604FF6DD
:10305000FF71C1600021016180218161FEF7B8FC30
:1030600008B1FDF73DFC4FF48050079007A92048B8
:10307000FEF7AEFD08B1FDF733FC1D48FEF783FFF8
:1030800008B1FDF72DFC00200590069005A9184811
:10309000FEF75CFC08B1FDF723FC00200190012045
:1030A0000290002003900490002201A91048FEF72E
:1030B000FBFE08B1FDF714FC042201A90C48FEF741
:1030C000F3FE08B1FDF70CFC082201A90848FEF741
:1030D000EBFE08B1FDF704FC0C2201A90448FEF741
:1030E000E3FE08B1FDF7FCFB0BB000BD000400409F
:1030F000D001002010B50B480B4908604FF4E130B7
:103100004860002108488160C16001610C21416173
:1031100000218161C161FFF7DFFB08B1FDF7E0FB32
:1031200010BD0000003801401802002010B50B4807
:103130000B4908604FF4E130486000210848816085
:10314000C16001610C21416100218161C161FFF712
:10315000C3FB08B1FDF7C4FB10BD000000480040F0
:103160006002002000BFFEE700BFFEE770470000DE
:1031700008B508490968C9084FF47A72B1FBF2F141
:103180004143009100BF00BF00994A1E00920029F0
:10319000F9D108BD38000020704710B5FDF792FF47
:1031A00010BD00B58FB0282105A8FCF7D2FF14216F
:1031B0006846FCF7CEFF0120059000040690002031
:1031C00007900120099002200C90C1030D914FF44B
:1031D000E0110E9105A8FEF76BF908B1FDF780FB31
:1031E0000F20009002200190002002904FF4806098
:1031F00003900020049002216846FEF735F808B1DC
:10320000FDF76EFB0FB000BD7047000010B502481F
:10321000FEF79EFF10BD00004001002010B50248DF
:10322000FEF796FF10BD00008801002010B502488F
:10323000FEF78EFF10BD0000D001002010B502681F
:103240001C4B984208D0B0F1804F05D01A4B9842E1
:1032500002D01A4B984203D122F070024B681A43F5
:10326000144B984208D0B0F1804F05D0124B9842D1
:1032700002D0124B984203D122F44072CB681A4319
:1032800022F080034C6943EA040202608B68C36247
:103290000B688362074B984201D10B6903630123DA
:1032A0004361036903F001031BB1036923F00103C8
:1032B000036110BD002C01400004004000080040E4
:1032C00030B501F01F05012404FA05F3046A9C439C
:1032D0000462046A01F01F0502FA05F52C4304623A
:1032E00030BD30B50C46816821F47F4142EA0325A8
:1032F00025432943816030BD0A46816821F0700171
:1033000042F00703194381607047000030B5026A3C
:10331000056A25F0010505624368846924F070049C
:1033200024F003040D682C4322F002028D682A4326
:103330000D4DA84206D100BF22F00802CD682A43F5
:1033400022F00402084DA84207D123F4807323F42D
:1033500000734D692B438D692B43436084614D6835
:103360004563026230BD0000002C014030B5026AA6
:10337000056A25F0100505624368846924F4E04479
:1033800024F440740D6844EA052422F020028D687C
:1033900042EA05120E4DA84207D100BF22F080027A
:1033A000CD6842EA051222F04002094DA84209D137
:1033B00023F4806323F400634D6943EA85038D6938
:1033C00043EA8503436084614D688563026230BDD2
:1033D000002C014030B5026A056A25F4807505624B
:1033E0004368C46924F0700424F003040D682C437E
:1033F00022F400728D6842EA05220F4DA84207D1DF
:1034000000BF22F40062CD6842EA052222F4806205
:10341000094DA84209D123F4805323F400534D6988
:1034200043EA05138D6943EA05134360C4614D689F
:10343000C563026230BD0000002C014030B5036A54
:10344000056A25F4805505624468C26922F4E042A9
:1034500022F440720D6842EA052223F400538D687D
:1034600043EA0533064DA84204D124F480444D6953
:1034700044EA85144460C2614D680564036230BD4E
:10348000002C014030B50B461446026A056A25F04F
:1034900001050562816921F0F00141EA041122F081
:1034A0000A021A438161026230BD000070B50C4609
:1034B0001546026A066A26F0010606628169124E06
:1034C000B04208D0B0F1804F05D0104EB04202D0CB
:1034D0000F4EB04201D1012600E000261EB121F0BE
:1034E0000301294301E041F0010121F0F001F02640
:1034F00006EA0316314322F00A0204F00A063243B8
:103500008161026270BD0000002C01400004004097
:103510000008004030B50B461446026A056A25F0E3
:1035200010050562816921F4704141EA043122F0FD
:10353000A00242EA03128161026230BD70B50C46FE
:103540001546026A066A26F010060662816921F4B1
:10355000407141EA052121F470414FF4704606EABA
:103560000336314322F0A002A02606EA04163243B5
:103570008161026270BD70B50C461546026A066A2A
:1035800026F480760662C16921F00301294321F007
:10359000F001F02606EA0316314322F400724FF4DC
:1035A000007606EA04263243C161026270BD70B53E
:1035B0000C461546026A066A26F480560662C16900
:1035C00021F4407141EA052121F470414FF4704625
:1035D00006EA0336314322F400524FF4005606EA5D
:1035E00004363243C161026270BD70B505466C6A33
:1035F0000020E085E0842046FEF7FBFF70BD70B53B
:1036000006460025746A20684069C0F3C01594F826
:103610004100212805D125B10020E084204600F09A
:10362000FBF820684069C0F3801594F84200222816
:1036300005D125B10020E085204600F0A7F8606C98
:1036400040F0100060642046FEF7D3FF70BD70B5F7
:1036500005466C6A2868006800F02000002842D106
:10366000E08500BF00BF21680C3151E8001F21F444
:10367000807021680C3141E80002002AF3D100BFBC
:1036800000BF00BF2168143151E8001F21F0010084
:103690002168143141E80002002AF3D100BF00BFC5
:1036A00000BF2168143151E8001F21F0400021685B
:1036B000143141E80002002AF3D100BF202084F831
:1036C0004200206B01280ED100BF00BF21680C31E1
:1036D00051E8001F21F0100021680C3141E8000280
:1036E000002AF3D100BF00206063206B012804D1C1
:1036F000A18D2046FEF737FF02E02046FFF702FAD1
:1037000070BD70B505466C6A01206063206B0128AE
:1037100005D1A08D41082046FEF725FF02E0204696
:10372000FFF7F1F970BD70B505466C6A286800684E
:1037300000F02000F8B90020E08400BF00BF21683D
:10374000143151E8001F21F080002168143141E854
:103750000002002AF3D100BF00BF00BF21680C3176
:1037600051E8001F41F0400021680C3141E800029F
:10377000002AF3D102E02046FFF76CFA70BD70B565
:103780000446656A2846FFF766FA70BD00BF00BFB1
:1037900002680C3252E8002F22F4907102680C3259
:1037A00042E80013002BF3D100BF00BF00BF026846
:1037B000143252E8002F22F001010268143242E86C
:1037C0000013002BF3D100BF016B01290ED100BF04
:1037D00000BF02680C3252E8002F22F0100102688C
:1037E0000C3242E80013002BF3D100BF202180F8F7
:1037F000421000210163704710B504462068C0687C
:1038000020F040002168C860202084F84100204654
:10381000FFF720FA002010BD00BF00BF02680C3285
:1038200052E8002F22F0C00102680C3242E8001377
:10383000002BF3D100BF202180F841107047F8B56C
:10384000044694F84200222875D1A068B0F5805F44
:103850000CD1206950B90025A66A20684068C0F3E1
:1038600008003080A06A801CA06215E0A56A0026CE
:10387000A068B0F5805F03D0A06828B9206918B9A6
:1038800020684068287004E02068406800F07F00ED
:103890002870A06A401CA062E08D401E80B2E085C6
:1038A000002846D12068C06820F020002168C86048
:1038B0002068C06820F480702168C8602068406972
:1038C00020F0010021684861202084F84200002097
:1038D0006063206B012826D10020206300BF00BF59
:1038E00021680C3151E8001F21F0100021680C31D3
:1038F00041E80002002AF3D100BF2068006800F010
:10390000100010280AD100BF002000902068006835
:10391000009020684068009000BF00BFA18D204645
:10392000FEF721FE02E02046FFF7ECF80020F8BD8C
:1039300001E00020FBE70220F9E7000070B5044633
:103940002168096921F44051E2681143226811613C
:103950002269A1681143626941EA02052168C968C8
:1039600041F20C62914329432268D1602168496980
:1039700021F44071A2691143226851612D4A2168E6
:10398000914202D1FDF74CFD01E0FDF739FD00EB5E
:10399000C00101EB001162689200B1FBF2F100EB93
:1039A000C00202EB001263689B00B2FBF3F26423D7
:1039B000B2FBF3F202EBC20303EB0212A1EB8201B2
:1039C000322202EB01116422B1FBF2F101F0F001AD
:1039D00000EBC00202EB001263689B00B2FBF3F243
:1039E0006423B2FBF3F201EB021200EBC00101EB26
:1039F000001163689B00B1FBF3F100EBC00303EB24
:103A000000136668B600B3FBF6F36426B3FBF6F367
:103A100003EBC30606EB0313A1EB8301322303EB95
:103A200001116423B1FBF3F101F00F01114422688D
:103A3000916070BD0038014077B581B004461546ED
:103A40000298A062A58500206064222084F84200CC
:103A50002848E16B88622848E16BC8622748E16B1F
:103A600008630020E16B486302AE32682368191DC9
:103A70002B46E06BFDF7BCF800BF002000902068EB
:103A80000068009020684068009000BF00BF206977
:103A900070B100BF00BF21680C3151E8001F41F434
:103AA000807021680C3141E80002002AF3D100BF88
:103AB00000BF00BF2168143151E8001F41F0010030
:103AC0002168143141E80002002AF3D100BF00BF91
:103AD00000BF2168143151E8001F41F04000216807
:103AE000143141E80002002AF3D100BF002004B0E5
:103AF00070BD00004F36000803370008FF3500088E
:103B0000014691F84100212828D18868B0F5805FEE
:103B10000BD1086948B90A6A1088C0F308000B681D
:103B20005860086A801C086205E00B6A581C08622D
:103B300018780B685860C88C401E80B2C88458B989
:103B40000868C06820F080000B68D8600868C0680A
:103B500040F040000B68D860002070470220FCE76E
:103B60002DE9F84304460D4617469846089E31E075
:103B7000701C70B3FDF7A0FAA0EB0800B04200D8AB
:103B800016B90320BDE8F8832068C06800F004007F
:103B9000F8B1802D1ED0402D1CD020680068C0F3E5
:103BA000C000B0B100BF0020009020680068009005
:103BB00020684068009000BF00BF2046FFF7E6FD88
:103BC0000820606400BF002084F8400000BF01208E
:103BD000D8E7FFE7206800682840A84201D101200B
:103BE00000E00020B842C3D00020CBE710B5024867
:103BF000FEF700FD10BD00001802002038B518487F
:103C0000FEF7F8FC164800680068C0F300152DB3F5
:103C100001201449087000BF00200090124800687D
:103C200000680090104800684068009000BF00BF26
:103C30000B48FEF799FC0D4800684068C4B260422A
:103C40000B490870084601780AA000F057F84FF4B5
:103C500080720C490248FEF73FFF00BF38BD0000EC
:103C6000600200200200002018020020A8020020AC
:103C700001000020646D612072785F6C656E3A25EA
:103C8000640D0A00400000202DE9F041FDF714FA10
:103C900007460020FFF724F8FFF71CF810490860DA
:103CA00008680021FCF70AFB01D2012000E0002097
:103CB0000B4908720846007A40B10868FCF7EBFA35
:103CC000044622460B4607A000F018F8FFF72CF830
:103CD000FDF7F2F906466420FCF7D8FFBDE8F08155
:103CE0005C030020C7B0B7BDBEE0C0EB3A20252E74
:103CF000326620636D0D0A0000BFFEE70FB4054B6E
:103D000010B503A9044A029800F0F6F810BC5DF85B
:103D100014FB0000694A00083C00002002480068CB
:103D2000C0F30220704700000CED00E010B5002841
:103D300004DB0A07130E054A135406E00A07140EA3
:103D4000034A00F00F031B1FD45410BD00E400E031
:103D500018ED00E002E008C8121F08C1002AFAD1DD
:103D600070477047002001E001C1121F002AFBD1FB
:103D7000704700002DE9FF5F82B00021DDE90430CB
:103D8000020DDDF840B0034318D044F61050A2F203
:103D9000FF3242431514119801281FD0A5EB0B00E8
:103DA000401C5FEA000A4FF000064E4FDFF83891E2
:103DB000B046504615D5CAF1000413E0119801240D
:103DC0004AA3012801D16FEA0B010298119AC0E9B8
:103DD0000031C0E9024206B0BDE8F09FCBF100001F
:103DE000DFE704460021404A491842EB0450CDE980
:103DF000001012E0E00707D032463B4640464946F5
:103E0000FCF78BFB8046894632463B4610461946F6
:103E1000FCF783FB06460F466410002CEAD1DDE96F
:103E20000401DDE90023BAF1000F06DAFCF775FBA7
:103E300042464B46FCF771FB05E0FCF7E0FB4246CF
:103E40004B46FCF7DCFB04460E460022284BFCF7F1
:103E50005DFC03D84FF0FF30014607E00022254B00
:103E600020463146FCF7B2FAFCF738FC102409E092
:103E7000002C0ADB0A220023FCF740FA039B3032B5
:103E80001A55641E50EA0102F2D1641C039AC4F16F
:103E900011031444119A012A03D0012208430DD1C1
:103EA0000AE0084304D000204FF0110B119072E794
:103EB000A3EB0B056D1E0DE05B4504DD4FF000022A
:103EC00005F1010504E003DA4FF00002A5F1010558
:103ED000002AECD002981199C0E90231C0E90045EE
:103EE00079E70000000014400000F03F30000000BF
:103EF0000000F0430000E03F2DE9FF4F95B09B46E6
:103F00008946064600250FE2252877D1002427465A
:103F1000F84A0121059400E0044316F8013F203BD4
:103F200001FA03F01042F7D130782A2811D06FF04F
:103F30002F033078A0F13002092A16D8059A44F0F0
:103F4000020402EB820203EB42021044761C05904D
:103F5000EFE759F8042B0592002A03DA504244F4A3
:103F60000054059044F00204761C30782E2816D1B7
:103F700016F8010F44F004042A280DD06FF02F0228
:103F80003078A0F13003092B09D807EB870302EB47
:103F90004303C718761CF3E759F8047B761C307886
:103FA0006C280FD006DC4C2817D068280DD06A2862
:103FB00014D104E0742810D07A280FD10DE044F415
:103FC00000140AE044F4801401E044F440147278D0
:103FD000824202D104F58014761C761C3078662863
:103FE0000BD013DC582877D009DC002875D0452881
:103FF000F6D04628F4D047281AD19DE118E063286E
:1040000035D0642879D0652812D195E1702873D015
:1040100008DC6728F1D069286FD06E280DD06F2892
:1040200006D1B5E073282CD0752875D0782874D0C7
:104030005A46179990476D1C75E1C4F30250022847
:1040400009D003280DD0D9F8001004280DD00D6038
:1040500009F1040967E1D9F80010EA17C1E9005233
:10406000F6E7D9F800100D80F2E70D70F0E719F8C7
:10407000041B8DF8001000208DF80100EA46012095
:1040800003E059F804AB4FF0FF3061074FF0000137
:1040900002D40DE008F101018846B9420FDA8045EB
:1040A000F8DB1AF808100029F4D108E008F1010142
:1040B00088468142FADB1AF808100029F6D10598E3
:1040C0005B46A0EB080721463846179A00F094FAA1
:1040D000284400EB080507E04DE029E10DE01AF85F
:1040E000010B5A4617999047B8F10108F7D25B4681
:1040F00021463846179A13E142E00A220092C4F39F
:1041000002524FF0000A022A08D059F804CB032AC1
:104110004FEAEC710AD00DE029E02AE009F107012D
:1041200021F00702F2E802C1914609E00FFA8CFC87
:104130004FEAEC71042A03D14FFA8CFC4FEAEC7180
:10414000002907DA0A460021DCF1000C61EB0201CC
:104150002D2202E0220504D52B228DF80420012215
:1041600003E0E20701D02022F7E7904659E00A2158
:1041700002E010220DE010214FF0000A00910BE048
:1041800010224FF0000A44F004040827009203E0D4
:1041900008224FF0000A0092C4F30252022A05D00E
:1041A00059F804CB0021032A08D009E009F10701DE
:1041B00021F00702F2E802C1914605E01FFA8CFCEB
:1041C000042A01D10CF0FF0C4FF00008220728D57B
:1041D000702806D0009B83F0100353EA0A0305D031
:1041E0000EE040228DF80420012208E05CEA010282
:1041F00006D030228DF804208DF80500022290466A
:10420000009B83F0080353EA0A030AD15CEA010227
:1042100001D1620705D530228DF804204FF0010846
:104220007F1E582804D034A003900EA802900DE001
:1042300036A0F9E753466046009AFCF75FF88446DB
:104240000398825C0298401E029002705CEA0100B2
:10425000F0D1029806A9081A00F1200A600702D5D9
:1042600024F4803400E00127574502DDA7EB0A0063
:1042700000E0002000EB0A01009005984144401A3C
:104280000590E00306D45B462146179A059800F096
:10429000B3F90544002706E001A85A46C05D179906
:1042A00090476D1C7F1C4745F6DBE0030CD55B4651
:1042B0002146179A059800F09FF9054404E0302044
:1042C0005A46179990476D1C0099481E0090002986
:1042D000F5DC08E0029802995A460078491C0291E0
:1042E000179990476D1CBAF10001AAF1010AF1DC9F
:1042F00065E10000092801003031323334353637AA
:104300003839616263646566000000003031323321
:1043100034353637383941424344454600000000C1
:1043200000F058F90544761C307800287FF4ECAD95
:1043300019B02846BDE8F08F620700D4062709F1BE
:10434000070222F0070CFCE80223E14603F00048D4
:104350005FEA080C02D00FF2702C0DE05FEA045CFB
:1043600002D50FF2682C07E05FEAC47C02D00FF29E
:10437000602C01E0AFF2700C4FF0FF3823F00043E7
:10438000CDF850C065280CD006DC452809D0462859
:104390001DD047283DD13DE0662818D067287ED142
:1043A00038E00021112F01DB112000E0781CCDE95D
:1043B000000106A90EA8FFF7DDFCDDE90F010E9A4A
:1043C00003910021009207F1010A04914DE04FF0A2
:1043D00000400097CDE9011006A90EA8FFF7CAFC1E
:1043E000DDE90F0203920E9B11990022DDF80CA06B
:1043F0000093049211B9791C00EB010AB7EB0A0093
:1044000004D4C0F1FF3007F1010A0490AAEB0700C1
:10441000019044E0012F00DA01270021112F01DD76
:10442000112000E03846CDE9000106A90EA8FFF7EB
:10443000A1FCDDE90F010E9A039100210491009285
:10444000BA4621070CD40399514500DA8A46BAF1DD
:10445000010F05DD009AAAF10101515C302908D055
:10446000B84202DA10F1040F06DA0121CDE9011099
:1044700015E0AAF10101E9E7002805DC04990144EF
:104480000491AAEB000102E0411C514500DD8A467F
:104490000499401A401C01904FF000400290200700
:1044A00004D40198504501DBCDF8048000208DF83C
:1044B0004F0002980DF14F07B0F1004F25D02B208F
:1044C0000E9002984FF0020800280CDA4042029049
:1044D0002D200E9007E00A210298FBF7F9FE3031FB
:1044E000029007F8011DB8F10001A8F10108F2DC03
:1044F00002980028EFD1791E0E980870307800F0ED
:10450000200040F0450007F8020D12A8C01B00F182
:1045100007081498007800B1012000EB0A01019807
:1045200001EBE07105984144401A401E0590E003FC
:1045300006D45B462146179A059800F05DF80544BD
:104540001498007818B15A46179990476D1CE003EB
:1045500024D55B462146179A059800F04DF805448E
:104560001CE00498002807DBDDE90301884203DD35
:104570000098405C179901E0179930205A469047FF
:10458000049805F10105401C04900198401E01901B
:1045900004D12E205A46179990476D1CBAF100019C
:1045A000AAF1010ADDDC05E017F8010B5A4617995C
:1045B00090476D1CB8F10001A8F10108F4DC5B46DE
:1045C0002146179A0598ABE62D0000002B0000004D
:1045D000200000002DE9F041044600251E46174644
:1045E000880404D405E039462020B0476D1C641EC1
:1045F000F9D52846BDE8F0812DE9F04104460025B3
:104600001E469046C80301D5302700E020278804C5
:1046100004D505E041463846B0476D1C641EF9D507
:104620002846BDE8F0812DE9F04705460C461746BF
:10463000601BFBF709FE81463946FBF795FD804676
:10464000FBF710FE4619AC4206DDA64202DD20460D
:10465000BDE8F087B0B2FBE7A64201DA2046F7E7F3
:10466000B0B2F5E72DE9F74F90B08A469346BAF11C
:10467000030F02DD13B0BDE8F08FC8200F900A20B1
:104680000E904FF47A700D90B74903C9CDE90B0134
:104690000821B648FCF702FD012801D0012000E006
:1046A00000200A901098012808D1002008900820C6
:1046B0000990042006900C20079007E00420089041
:1046C0000C2009900020069008200790A848006858
:1046D000406B80B2ADF81000A5480068806B80B2D6
:1046E000ADF81200A2480068C06B80B2ADF81400AB
:1046F0009F480068006C80B2ADF81600AAF1010076
:104700000BA931F81040BBF1000F01D1C82000E027
:10471000584683460BF105000A2190FBF1F085B263
:104720000DB9012000E02846054600200390A8E0CE
:104730002846FBF792FD01900398FBF78EFD009051
:104740000199FBF743FD0290069800F013F904A9C4
:1047500031F8100001904FF47A71029AFFF763FF6D
:104760000646079800F006F904A931F810000190F8
:104770004FF47A71029AFFF756FF0746089800F047
:10478000F9F804A931F8100001902146029AFFF7C8
:104790004AFF8046099800F0EDF804A931F81000AE
:1047A00001902146029AFFF73EFF8146069818B90C
:1047B0006F480068466310E00698042803D16C48EF
:1047C0000068866309E00698082803D168480068F5
:1047D000C66302E0664800680664079818B9644832
:1047E0000068476310E00798042803D16048006818
:1047F000876309E00798082803D15D480068C7630C
:1048000002E05B4800680764089820B958480068CF
:10481000C0F8348013E00898042804D15448006894
:10482000C0F838800BE00898082804D15048006888
:10483000C0F83C8003E04E480068C0F8408009980A
:1048400020B94B480068C0F8349013E00998042858
:1048500004D147480068C0F838900BE00998082850
:1048600004D143480068C0F83C9003E04048006829
:10487000C0F840900A20FCF709FA0398401C80B267
:1048800003900398A8427FF753AF069828B94FF4D6
:104890007A7037490968486316E00698042805D1FC
:1048A0004FF47A703249096888630DE00698082849
:1048B00005D14FF47A702E490968C86304E04FF4BB
:1048C0007A702B4909680864079828B94FF47A7000
:1048D00027490968486316E00798042805D14FF472
:1048E0007A702349096888630DE00798082805D184
:1048F0004FF47A701E490968C86304E04FF47A7077
:104900001B4909680864089818B919480068446385
:1049100010E00898042803D115480068846309E072
:104920000898082803D112480068C46302E01048C0
:1049300000680464099818B90D480068446310E0E1
:104940000998042803D10A480068846309E009989B
:10495000082803D106480068C46302E004480068E0
:10496000046400BF86E60000CC530008000C014040
:104970008801002001460846C0B270472DE9F04189
:1049800004460F4600250026E578A5F1A10005287C
:104990005CD2DFE800F0031D31454A002079012890
:1049A0000DDB207902280ADC6079052807DC2079F4
:1049B00028490870607928490870002600E001261F
:1049C0003146A12000F070FB0120244908703EE030
:1049D0002079032807DC012021490870207921492A
:1049E0000870002600E001263146A22000F05CFBA2
:1049F00002201A4908702AE02079032807DC0220E7
:104A000017490870207917490870002600E0012630
:104A10003146A22000F048FB02201049087016E041
:104A20000021A42000F040FB11E00020094908709B
:104A3000094908700A4908700A4908700021A52030
:104A400000F032FB03200549087000BF00BF00BF23
:104A5000BDE8F08125000020260000200000002095
:104A6000270000202800002013B50C464FF6FF73E6
:104A7000012269460248FEF747F800981CBD000075
:104A800018020020FCF72AFBFEF78BFBFEF782F9E9
:104A9000FEF752FAFEF72EFBFEF75AF9FEF746FB39
:104AA000FEF7C0FAFEF710FA1A48FDF755F81A4853
:104AB0000068C06840F0100017490968C8604FF4EA
:104AC000807216491448FEF707F81548FDF744F8B8
:104AD00000211348FDF78CFA12A0FFF70FF900210F
:104AE0001A48FDF7CDFC04211848FDF7C9FC082140
:104AF0001648FDF7C5FC0C211448FDF7C1FC14A0B5
:104B0000FFF7FCF805E000F0B9F900F007FAFFF74D
:104B1000BBF8F8E7400100206002002040000020C0
:104B2000D00100205B4D41494E5D206D6F746F7266
:104B300020626C6520636172207379737465726D95
:104B400020696E6974210D0A0000000088010020B0
:104B50005B4D41494E5D207768696C652070726FCE
:104B60006365737320696E6974210D0A000000008B
:104B700070B505460C46012D06D0022D0FD0032D31
:104B800018D0042D2CD120E0012C01D1012000E00F
:104B90000020024608211448FCF788FA21E0012C85
:104BA00001D1012000E00020024610210E48FCF750
:104BB0007DFA16E0012C01D1012000E00020024620
:104BC00020210948FCF772FA0BE0012C01D10120E9
:104BD00000E00020024640210348FCF767FA00E0AD
:104BE00000BF00BF70BD0000000C01402DE9F74F71
:104BF0008CB0814692467F4AD2E900109268CDE996
:104C00000A0209917C4C7B4B0C330FCB05AD0FC5D1
:104C1000B9F1010F02DBB9F1050F02DD0FB0BDE8FC
:104C2000F08FA9F1010009A931F810500026B34610
:104C300030E00BF10101C8B20D99FFF799FF05A80B
:104C400050F82B0010B92068406B11E005A850F80F
:104C50002B00042802D12068806B09E005A850F8D9
:104C60002B00082802D12068C06B01E02068006C8E
:104C700003A921F81B0031F81B10681A002801DB7A
:104C8000014600E0414200910099B14200DD009EE2
:104C90000BF1010BBBF1040FCBDB06B9BEE70A2712
:104CA000BAF1000F01D1C82000E0504682463846D4
:104CB00007EBD0710AEB610191FBF7F11FFA81F864
:104CC000B8F1000F01D1012000E04046804696FB7C
:104CD000F8F0029096FBF8F008FB106001900020BD
:104CE000009064E0DDF808B00198002804DD0BF1C5
:104CF000010B0198401E019000204FE003A931F8FC
:104D00001010A9420FDA03A931F81010594403AA70
:104D100022F8101003A931F81010A94218DD03A9D8
:104D200021F8105014E003A931F81010A9420FDD4A
:104D300003A931F81010A1EB0B0103AA22F81010FF
:104D400003A931F81010A94202DA03A921F8105082
:104D500005A951F8201029B903A931F810102268CB
:104D600051631AE005A951F82010042905D103A9BF
:104D700031F81010226891630FE005A951F8201056
:104D8000082905D103A931F810102268D16304E085
:104D900003A931F8101022681164401C0428ADDB0F
:104DA0003846FBF773FF0098401C80B200900098D3
:104DB000404597DB002019E005A951F8201011B9F2
:104DC00021684D6311E005A951F82010042902D192
:104DD00021688D6309E005A951F82010082902D146
:104DE0002168CD6301E021680D64401C0428E3DBE9
:104DF00000BF13E7A85300088801002070B50646DD
:104E00000D460024002003E0315C2144CCB2401C5C
:104E1000A842F9DB214604A0FEF770FFFF2C01D168
:104E2000002070BD0220FCE7636865636B2073752A
:104E30006D20726573756C743A253032780D0A00F6
:104E400010B502460B460020002103E0545C0444E8
:104E5000E0B2491C9942F9DBC0F1FF0010BD70B50A
:104E600004460D46002229462046FFF7BFFE70BDCE
:104E700010B5C82000F012FA10BD000070B5002572
:104E800018480078012800D070BD17480078AA287B
:104E900003D115484078AA2800D0F5E70020114931
:104EA00008701248057812A229460F4800F0D8F879
:104EB000E81E81B20C48C01CFFF7A0FF04463CB1BD
:104EC0000DA0FEF71BFF0021A62000F0EDF8DBE7A8
:104ED0000EA0FEF713FF29460348FFF74FFD00BF62
:104EE000D2E7000002000020400000200100002066
:104EF0005541525433000000636865636B2073753D
:104F00006D204552524F52210D0A000063686563BF
:104F10006B2073756D204F4B210D0A0010B50024D6
:104F20002248007800B910BD20480078012804D03C
:104F3000022821D0032832D12BE01DA0FEF7DEFE8F
:104F400008212548FCF7AAF8012800D100E002203A
:104F5000044622480078844207D021A0FEF7CEFE06
:104F6000FFF786FF0A20FBF791FE1C4801782548D1
:104F70000078FFF774FF13E02348017823A0FEF7C1
:104F8000BDFE00222E4801781F480078FFF76AFB1B
:104F900006E02CA0FEF7B2FEFFF76AFF00E000BFBC
:104FA00000BF00200149087000BFBCE700000020DE
:104FB0005B4D4F544F525D20736574206D6F746F5D
:104FC000722072756E20616E642073706565646C0A
:104FD0006576656C210D0A00000C0140250000205B
:104FE0005B4D4F544F525D20736574206D6F746F2D
:104FF00072207475726E20646972656374696F6E75
:10500000210D0A0026000020270000205B4D4F5490
:105010004F525D20736574206D6F746F72207475CC
:10502000726E212C675F4D6F746F725475726E448F
:105030006972656374696F6E3A2564210D0A000018
:10504000280000205B4D4F544F525D207365742043
:105050006D6F746F722073746F70210D0A00000001
:105060002DE9F04105460E461746394608A0FEF7E1
:1050700045FE002404E0295D09A0FEF73FFE641C04
:10508000B442F8DB05A0FEF739FEBDE8F081000070
:1050900052657620446174613A2025730D0A000040
:1050A000253032782000000070B504460D460020FF
:1050B0007349087014217348FBF74BF8AA21704814
:1050C00002780078401C6E4B18706E488154184668
:1050D00002780078401C18706A488154A4F1A1003D
:1050E00006287DD2DFE800F0031C354E869F06219E
:1050F000634802780078401C614B18706148815405
:10510000184601780078401C1A4610705D484454D7
:10511000104601780078401C10705A48455495E0BC
:105120000621574802780078401C554B18705548A6
:105130008154184601780078401C1A461070514876
:105140004454104601780078401C10704D48455476
:105150007CE006214A4802780078401C484B1870D1
:1051600048488154184601780078401C1A4610704F
:1051700044484454104601780078401C107041485F
:10518000455463E009213E4802780078401C3C4BBE
:1051900018703C488154184601780078401C1A4623
:1051A000107038484454384802781846017800781E
:1051B000401C18703348425434480178184602782D
:1051C0000078401C18702F488154314801781846E7
:1051D00002780078401C18702A4881542D4800E05D
:1051E00033E00178184602780078401C1870254892
:1051F00081542BE00621224802780078401C204B85
:10520000187020488154184601780078401C1A46CE
:1052100010701C484454104601780078401C1070EF
:105220001848455412E00522154801780078401CC2
:10523000134B187013484254184601780078401CEC
:105240001A4610700F48445400E000BF00BF0C48DD
:105250000078C01E81B20B48C01CFFF7F1FD064666
:10526000074801780078401C054A107005484654EC
:105270001046027803490848FDF7A6FC70BD0000FF
:105280001C00002030030020250000202600002004
:105290002700002028000020600200202DE9FF47A1
:1052A0000746404D4FF064094FF00A0A07B96427DA
:1052B0002868406B00902868806B01902868C06B5C
:1052C00002902868006C03900024002006E05DF83E
:1052D0002010A14201D95DF82040401C0428F6DBD3
:1052E0000CB9BDE8FF870A2097FBF0F01FFA80F8A1
:1052F000B8F1000F01D14FF00108B4FBF8F64DE012
:10530000B44201D9A41B00E00024002041E05DF874
:10531000201000293CD05DF820206243A319B2FB85
:10532000F3F108B9002208E0012801D1042204E0C9
:10533000022801D1082200E00C2212B92A68516328
:1053400023E008B9002208E0012801D1042204E08A
:10535000022801D1082200E00C22042A02D12A6886
:10536000916312E008B9002208E0012801D104226B
:1053700004E0022801D1082200E00C22082A02D110
:105380002A68D16301E02A6811644DF8201000BF3B
:10539000401C0428BBDB0A20FBF778FC002CAFD1B3
:1053A00000BF9EE788010020E803EE02F4012C0113
:1053B000640000000000000004000000080000007D
:1053C0000C000000BC029001C8000000BC0290016B
:1053D000C80002030405060708090A0B0C0D0E0F8E
:1053E0001010010200000000000000000102030490
:1053F0000607080900000000010203041C5400080D
:105400000000002040000000543D00085C540008EB
:105410004000002028070000643D00080000000054
:10542000000000000000000000000000000000007C
:10543000000000000000000000000000000000006C
:10544000000000000000000000000000100000004C
:0C5450000100000000127A0000000000C3
:04000005080000ED02
:00000001FF
